:020000040800F2
:10000000C007002039020008CD1A0008A70900081F
:10001000C91A0008C1060008911D00080000000070
:10002000000000000000000000000000711B00083C
:10003000E506000800000000CF1A0008611C000857
:10004000530200085302000853020008530200083C
:10005000530200085302000853020008530200082C
:10006000530200085302000853020008530200081C
:10007000530200085302000853020008C506000896
:1000800053020008530200085302000853020008FC
:10009000530200085302000853020008F906000842
:1000A00053020008530200085302000853020008DC
:1000B00053020008530200085302000853020008CC
:1000C00053020008530200085302000853020008BC
:1000D00053020008530200085302000853020008AC
:1000E000530200085302000853020008530200089C
:1000F000530200085302000853020008530200088C
:10010000530200085302000853020008530200087B
:100110005302000853020008D91C000853020008CB
:10012000530200085302000853020008530200085B
:10013000530200085302000853020008530200084B
:10014000530200085302000853020008530200083B
:10015000530200085302000853020008530200082B
:10016000530200085302000853020008530200081B
:10017000530200085302000853020008530200080B
:10018000530200085302000800F002F800F044F89F
:100190000AA090E8000C82448344AAF10107DA45E2
:1001A00001D100F039F8AFF2090EBAE80F0013F0F0
:1001B000010F18BFFB1A43F001031847B05A0000A3
:1001C000D05A0000103A24BF78C878C1FAD8520734
:1001D00024BF30C830C144BF04680C6070470000C1
:1001E0000023002400250026103A28BF78C1FBD840
:1001F000520728BF30C148BF0B607047642900F028
:100200008580782900F0BE80002070471FB501F07E
:100210005FFF1FBD10B510BD00F020FA1146FFF7BB
:10022000F5FF01F01DFF00F03EFA03B4FFF7F2FF07
:1002300003BC01F0B8FE00000948804709480047A8
:10024000FEE7FEE7FEE7FEE7FEE7FEE7FEE7FEE786
:10025000FEE7FEE704480549054A064B70470000E3
:10026000711C000889010008C0010020C00700209F
:10027000C0030020C0030020704700000FB40449F1
:1002800010B503AA029800F0D3F910BC5DF814FB76
:10029000380000200FB41CB5074B06AA7B44694602
:1002A0000090059800F0ABF90020694600F0BAF91B
:1002B0001CBC5DF814FB00008503000070B504460B
:1002C00085690068C10601D5302600E02026C007F8
:1002D00007D070BDD4E9012130469047206A401C08
:1002E00020626D1EF6D570BD70B504468569007834
:1002F000C00707D170BDD4E9012120209047206AB2
:10030000401C20626D1EF6D570BD00002DE9F04145
:100310000646002410687529314616A510D0AFF3A3
:100320000080002802DA404213A507E031688A07FE
:1003300001D512A502E0490704D511A5012401E069
:10034000AFF3008000210A2206F1240709E0B0FB88
:10035000F2FCB0FBF2F302FB1C003030785418467C
:10036000491C0028F3D123462A463046BDE8F04117
:1003700000F0E6B8000000002D0000002B00000097
:100380002000000070B504460D4621461068AFF30A
:1003900000802188090502D50F4A7A4402E00E4AFE
:1003A0007A440E32002104F1240305E000F00F0628
:1003B0000009965D5E54491C0028F7D1207800237F
:1003C000000704D5702D02D009B102231132204656
:1003D000BDE8704000F0B4B8A55800002DE9F04722
:1003E0004FF0000A89460446C0F820A02046E16884
:1003F0008847002876D0252806D0D4E901219047E7
:10040000206A401C2062F1E7E16820460025884709
:10041000C4F81CA006460027C4F818A02A2E09D04C
:10042000304601F0B9FD38B304EB8708303EC8F818
:10043000186019E059F8041B204604EB870291610B
:10044000E1688847012F064618D1E069002820DAC4
:1004500025F020051DE0D8F8180000EB800006EB21
:1004600040003038C8F818002046E1688847064642
:1004700001F092FD0028EED1012F0AD02E2E08D1D6
:100480002046E16888477F1C0646022F45F020057C
:10049000C4DBA069002803DA404245F00105A061F1
:1004A000E80701D025F01005B6B1A6F141001928E2
:1004B00002D8203645F400654A463146204625607C
:1004C0004D46FFF79BFE58B1012806D0ED1D25F0E3
:1004D000070000F1080989E704E005F1040985E750
:1004E00030468AE7206ABDE8F0874FF0000200B589
:1004F000134694469646203922BFA0E80C50A0E847
:100500000C50B1F12001BFF4F7AF090728BFA0E8F4
:100510000C5048BF0CC05DF804EB890028BF40F8C0
:10052000042B08BF704748BF20F8022B11F0804F02
:1005300018BF00F8012B704770477047704770472D
:100540002DE9F0470D4699469246044600F12408ED
:100550000168880604D5E06921F01001216000E0FF
:100560000120A84201DD471B00E00027A1697A199C
:1005700002EB0900081AA0612078C00602D42046C8
:10058000FFF79CFE002608E0D4E901211AF80600D6
:100590009047206A401C761C20624E45F4DB207890
:1005A000C0060AD52046FFF789FE06E0D4E90121FE
:1005B00030209047206A401C2062381EA7F10107B6
:1005C000F4DC07E0D4E9012118F805009047206A1F
:1005D000401C2062281EA5F10105F3DC2046FFF730
:1005E00083FE2078000602D50220BDE8F0870120B6
:1005F000FBE7000001694A1C02610878704700B5FA
:100600008FB0CDE901310021059105497944CDE94B
:10061000031011466846FFF7E1FE0FB000BD000071
:10062000E5FFFFFF0A6802F8010B0A60704700004F
:10063000074B70B50D467B44FFF7E1FF04462846A3
:1006400000F008F810B14FF0FF3070BD204670BDCB
:10065000F7190000007B00F080007047754600F03D
:100660002BF8AE4605006946534620F00700854644
:1006700018B020B5FFF7EEFDBDE820404FF00006B2
:100680004FF000074FF000084FF0000B21F007017A
:10069000AC46ACE8C009ACE8C009ACE8C009ACE8BD
:1006A000C0098D46704710B50446AFF30080204660
:1006B000BDE81040FFF7B9BD004870475C0100205D
:1006C00000BFFEE70548406800F0200028B1202068
:1006D0000249C8600020024908707047006002406B
:1006E00071000020704701B502E00098401E0090A4
:1006F00000980028F9D108BD10B54FF4007000F043
:1007000011F828B1012003490870400200F004F8F4
:1007100010BD000070000020014908607047000013
:10072000143C014001460020034A12680A400AB105
:10073000012000E000207047143C014010B5034642
:10074000002007220BE0C000012494401C4014B19B
:1007500040F0060001E040F00400541E62B2002A9E
:10076000F1DA020C0A70020A4A70887010BD0000AB
:1007700051B18200A2F1C042126842F0010382002E
:10078000A2F1C042136009E08200A2F1C0421268E7
:10079000034B1A408300A3F1C0431A607047000066
:1007A000FEFF0F0030B50021002200230468A400E2
:1007B000A4F1C0442168424C2140D0E901452C43BA
:1007C000C5682C4305692C4345692C4385692C4336
:1007D000C5692C43056A2C43456A2C43856A2C4322
:1007E000C56A2C43056B2C4321430468A400A4F183
:1007F000C04421608468082C0BD10468A400A4F1D3
:10080000C044246844F040050468A400A4F1C04436
:1008100025600468641CA400A4F1C044226802F0AE
:100820004042446B2468456B6D6844EA0514456B8F
:10083000AD6844EA0524456BAD8944EA0544456B3F
:100840002D8A44EA0554456B2D7D44EA0564456BC9
:10085000AD692C4322430468641CA400A4F1C04485
:100860002260C46AB4F5804F20D10468A400A4F1CA
:10087000C044D4F80431134C2340846B2468856B46
:100880006D6844EA0514856BAD6844EA0524856B00
:10089000AD8944EA0544856BAD692C432343046864
:1008A000A400A4F1C044C4F8043107E06FF070451F
:1008B0000468A400A4F1C044C4F8045130BD000091
:1008C0008000F7FF0000F0CFF0B50A4600210023BA
:1008D000002400BF3DE0012505FA01F3156805EA93
:1008E00003049C4234D105684F000326BE40B54343
:1008F000056015794E00B5400668354305601579E9
:10090000012D02D01579022D16D185684F000326DE
:10091000BE40B543856055794E00B5408668354385
:100920008560456801268E40B543456045689679E7
:100930008E40B6B235434560C5684F000326BE40C1
:10094000B543C560D5794E00B540C6683543C5602E
:10095000491C1029BFD3F0BDF0B5002300244D077A
:10096000ED0E02FA05F3CE1000F1200555F82650E1
:100970004E07F70E0F26BE40B543CF1000F12006FC
:1009800046F82750CE1000F1200555F8265045EACC
:100990000304CE1000F1200545F82640F0BD418348
:1009A00070470183704700BFFEE7000010B50446A2
:1009B0002CB14FF400710548FFF7F1FF04E04FF44C
:1009C00000710248FFF7EDFF10BD00000014024067
:1009D0002DE9F04106460F4614461D462B46224699
:1009E0003946304600F0A8FB04FB05F002490988AF
:1009F00000F0F8F9BDE8F0813600002001B502E012
:100A00000098401E009000980028F9D108BD000011
:100A10002DE9F05F804689461646A6F120001FFAB0
:100A200080FA1E49096889881C4A1268D28801FB2D
:100A300002F0C11700EB5171C1F3C70717480068F6
:100A400000680AFB070B15480068C3881348006854
:100A500082884946404600F06FFB2C2000F046FE9D
:100A6000002416E0002510E01BF804008021294135
:100A7000084020B10A48008800F03CFE03E0094825
:100A8000008800F037FE681CC5B2082DECDB601C46
:100A9000C4B2BC42E6DBBDE8F09F0000300000209D
:100AA000340000203600002070B504460D460026B4
:100AB00024E03046134909688988084412490988A6
:100AC000884205DD00260F480068C088204484B2B3
:100AD00020460C490968C98808440C49098888429D
:100AE00001DD002600242A7821463046FFF790FFDA
:100AF0006D1C044800688088304486B2287800283D
:100B0000D7D170BD30000020280000202A0000202E
:100B10002DE9F05F05460E4691469B4600240FFAEC
:100B200089F70320A0EB49000FFA80FA87E0BBF1B8
:100B3000000F40D0A0463BE006EB080291B22A1914
:100B400090B200F0B7FD06EB080291B22A1B90B2FA
:100B500000F0B0FD321991B2A5EB080290B200F09E
:100B6000A9FD321B91B2A5EB080290B200F0A2FDE4
:100B7000A6EB080291B22A1B90B200F09BFDA6EBF7
:100B8000080291B22A1990B200F094FD321B91B282
:100B900005EB080290B200F08DFD321991B205EB21
:100BA000080290B200F086FD08F101000FFA80F80B
:100BB000B845C1DD2FE0F21991B22A1990B200F0C8
:100BC00079FDF21991B22A1B90B200F073FD32192F
:100BD00091B2EA1B90B200F06DFD321B91B2EA1B9C
:100BE00090B200F067FDF21B91B22A1B90B200F0A8
:100BF00061FDF21B91B22A1990B200F05BFD321B2D
:100C000091B2EA1990B200F055FD321991B2EA1989
:100C100090B200F04FFD601C04B2BAF1000F05DA8B
:100C2000A000801D50440FFA80FA07E0E01B80000E
:100C30000A3050440FFA80FA781E07B200BFBC4257
:100C40007FF775AFBDE8F09F2DE9FF4F83B0814678
:100C50004FF0000AD3460598A0EB090504990698C1
:100C6000461ACDF8049004980090002D01DD01276C
:100C700005E00DB9002702E04FF0FF376D42002E6E
:100C800002DD4FF0010806E016B94FF0000802E05F
:100C90004FF0FF387642B54201DD2C4600E0344685
:100CA0000020029019E0DDE9001000F003FDAA44E5
:100CB000B344A24505DDAAEB040A0198384480B28A
:100CC0000190A34505DDABEB040B0098404480B2D6
:100CD00000900298401C80B20290611C02988842E9
:100CE000E1DD07B0BDE8F08F2DE9F04104460D4687
:100CF00016461F46DDF81880B8F1000F0CD03B46B1
:100D000032462946204600F017FA06FB07F017493D
:100D1000098800F067F827E0A019401E82B22B4630
:100D200029462046FFF790FFE819401E83B2A0191C
:100D3000401E82B2E819401E81B22046FFF784FFB0
:100D4000E819401E83B2224629462046FFF77CFF61
:100D5000E919491E8BB2A119491E8AB2A119491E6F
:100D600088B22946FFF770FFBDE8F081340000200B
:100D700000B597B03C2108A8FFF7B7FB1C2101A8DC
:100D8000FFF7B3FB0121084600F0B2FE04200190FA
:100D90000F2003904FF080500790002002900490A5
:100DA00005900690042008900020099008200A90E1
:100DB00010200B9000200C900E900F9010904FF48C
:100DC00080501190002012901390149001A815905B
:100DD000169008A8FFF7E6FC01210420FFF7C8FCE5
:100DE00017B000BD70B504460D4600262C2000F05B
:100DF0007DFC00BF03E0284600F07CFC761CA64288
:100E0000F9D370BD1CB50121782000F061FE0220ED
:100E10008DF804008DF80500400300906946804875
:100E2000FFF752FD0C220E217D48FFF795FD4FF490
:100E30000040009069467A48FFF746FD0C220F21DA
:100E40007748FFF789FD0120009069467448FFF755
:100E50003BFD0C2200217248FFF77EFD022000902E
:100E600069466F48FFF730FD0C2201216C48FFF7FF
:100E700073FD8020009069466A48FFF725FD0C222B
:100E800007216848FFF768FD4FF4807000906946BD
:100E90006448FFF719FD0C2208216248FFF75CFD4A
:100EA0004FF40070009069465E48FFF70DFD0C227C
:100EB00009215C48FFF750FD4FF4806000906946BF
:100EC0005848FFF701FD0C220A215648FFF744FD60
:100ED0004FF40060009069465248FFF7F5FC0C2281
:100EE0000B215048FFF738FD4FF4805000906946C1
:100EF0004C48FFF7E9FC0C2211464A48FFF72CFD4D
:100F00004FF40050009069464648FFF7DDFC0C2284
:100F10000D214448FFF720FD4FF4804000906946C2
:100F20004048FFF7D1FC0C220E213E48FFF714FD8C
:100F30004FF40040009069463A48FFF7C5FC0C2288
:100F40000F213848FFF708FD4FF480700090694684
:100F50003348FFF7B9FC0C2208213148FFF7FCFCAD
:100F60004FF40070009069462D48FFF7ADFC0C224D
:100F700009212B48FFF7F0FC4FF480600090694690
:100F80002748FFF7A1FC0C220A212548FFF7E4FCC3
:100F90001020009069462248FFF796FC0C2204219D
:100FA0001F48FFF7D9FC2020009069461C48FFF736
:100FB0008BFC0C2205211A48FFF7CEFC4FF4806011
:100FC000009069461848FFF77FFC0C220A2116485A
:100FD000FFF7C2FC0120009069461448FFF774FC3B
:100FE0000C2200211148FFF7B7FC01208DF8040006
:100FF00000208DF8060001208DF8070002208DF8F2
:1010000005008002009069460848FFF75DFC4FF438
:101010000070009069460548FFF756FC1CBD0000B3
:10102000000C024000100240001802400014024070
:1010300010B50446072C00DD10BD31480470204671
:1010400004EBD0714910A4EB410139B9F0202D49CE
:1010500008804FF4A0702C49088006E04FF4A0707F
:1010600028490880F02028490880362000F03EFBFF
:101070002648008849F24131884205D1082141EAD9
:10108000441000F037FB0AE02048008848F2525133
:10109000884204D1002141EA441000F02BFB2A20B1
:1010A00000F024FB002000F025FB002000F022FBD4
:1010B00014490988491EC1F3072000F01BFB1149A0
:1010C0000978491EC8B200F015FB2B2000F00EFB7A
:1010D000002000F00FFB002000F00CFB0A490988FB
:1010E000491EC1F3072000F005FB07490978491E96
:1010F000C8B200F0FFFA2C2000F0F8FA00BF9BE71E
:101100002C000020280000202A0000202E000020B3
:1011100010B5FFF777FEFFF72BFE0120FFF746FC27
:1011200000F0A8FA00F038F802480078FFF780FFD6
:1011300010BD00002C0000202DE9F04104460D46B2
:1011400016461F462A2000F0D1FA201200F0D2FAEB
:10115000E0B200F0CFFAA119491EC1F30F2000F050
:10116000C9FAA119491EC8B200F0C4FA2B2000F038
:10117000BDFA281200F0BEFAE8B200F0BBFAE91995
:10118000491EC1F30F2000F0B5FAE919491EC8B293
:1011900000F0B0FABDE8F08110B500F025FAFE4984
:1011A00008800846008849F2413188427ED1CF202C
:1011B00000F09CFA002000F09DFA812000F09AFADD
:1011C000302000F097FAED2000F090FA642000F053
:1011D00091FA032000F08EFA122000F08BFA8120A1
:1011E00000F088FAE82000F081FA852000F082FA09
:1011F000102000F07FFA782000F07CFACB2000F07D
:1012000075FA392000F076FA2C2000F073FA0020ED
:1012100000F070FA342000F06DFA022000F06AFA53
:10122000F72000F063FA202000F064FAEA2000F0D2
:101230005DFA002000F05EFA002000F05BFAB120B9
:1012400000F054FA002000F055FA1B2000F052FA8A
:10125000B62000F04BFA0A2000F04CFAA22000F071
:1012600049FAC02000F042FA352000F043FAC120CC
:1012700000F03CFA112000F03DFAC52000F036FAEB
:10128000452000F037FA452000F034FAC72000F07E
:101290002DFAA22000F02EFAF22000F027FA00200A
:1012A00000F028FA262000F021FA00E096E0012064
:1012B00000F020FAE02000F019FA0F2000F01AFAEE
:1012C000262000F017FA242000F014FA0B2000F07A
:1012D00011FA0E2000F00EFA092000F00BFA54204B
:1012E00000F008FAA82000F005FA462000F002FA03
:1012F0000C2000F0FFF9172000F0FCF9092000F0A5
:10130000F9F90F2000F0F6F9072000F0F3F90020BA
:1013100000F0F0F9E12000F0E9F9002000F0EAF92E
:10132000192000F0E7F91B2000F0E4F9042000F098
:10133000E1F9102000F0DEF9072000F0DBF92A20A7
:1013400000F0D8F9472000F0D5F9392000F0D2F9A3
:10135000032000F0CFF9062000F0CCF9062000F0C1
:10136000C9F9302000F0C6F9382000F0C3F90F2089
:1013700000F0C0F9362000F0B9F9C82000F0BAF941
:101380002A2000F0B3F9002000F0B4F9002000F0AA
:10139000B1F9002000F0AEF9EF2000F0ABF92B20FE
:1013A00000F0A4F9002000F0A5F9002000F0A2F957
:1013B000012000F09FF93F2000F09CF93A2000F056
:1013C00095F9552000F096F9112000F08FF9734837
:1013D000FFF714FB292000F089F901E16E4800882D
:1013E00048F252518842F8D1CF2000F07FF9002016
:1013F00000F080F9C12000F07DF9302000F07AF98A
:10140000ED2000F073F9642000F074F9032000F07F
:1014100071F9122000F06EF9812000F06BF9E820DC
:1014200000F064F9852000F065F9102000F062F901
:10143000782000F05FF9CB2000F058F9392000F057
:1014400059F92C2000F056F9002000F053F934200F
:1014500000F050F9022000F04DF9F72000F046F9B5
:10146000202000F047F9EA2000F040F9002000F0C9
:1014700041F9002000F03EF9C02000F037F92120AA
:1014800000F038F9C12000F031F9112000F032F9F4
:10149000C52000F02BF92D2000F02CF9332000F0AE
:1014A00029F9362000F022F9002000F023F93A2033
:1014B00000F01CF9552000F01DF9B12000F016F9DC
:1014C000002000F017F9172000F014F9B62000F002
:1014D0000DF90A2000F00EF9A22000F00BF9F62019
:1014E00000F004F9012000F005F9302000F002F9C5
:1014F000F22000F0FBF8002000F0FCF8262000F0BD
:10150000F5F8012000F0F6F8E02000F0EFF8D02028
:1015100000F0F0F8002000F0EDF8022000F0EAF80A
:10152000072000F0E7F80B2000F0E4F81A2000F0A4
:10153000E1F8312000F0DEF8542000F0DBF8402024
:1015400000F0D8F8292000F0D5F8122000F0D2F8E9
:10155000122000F0CFF8122000F0CCF8172000F095
:10156000C9F8E12000F0C2F8D02000F0C3F8002054
:1015700000F0C0F8022000F0BDF8072000F0BAF833
:10158000052000F0B7F8252000F0B4F82D2000F079
:10159000B1F8442004E000002E000020FCBF02004F
:1015A00000F0A8F8452000F0A5F81C2000F0A2F8F3
:1015B000182000F09FF8162000F09CF81C2000F086
:1015C00099F81D2000F096F8112000F08FF80548DA
:1015D000FFF714FA292000F089F82C2000F086F893
:1015E00010BD0000FCBF020010B50024042000F074
:1015F0007DF800BF4FF0D040408800BF4FF0D04092
:10160000408800F033F804464FF6FF7000EA0424E7
:1016100000F02CF8044348F25250844201D1204695
:1016200010BDD32000F062F800BF4FF0D0404088DA
:1016300000BF4FF0D040408800F018F804464FF645
:10164000FF7000EA042400F011F80443214604A0CE
:10165000FEF714FE14B149F24130E1E70020DFE764
:101660006964203D202534780D0A00004FF0D040F9
:101670004088704710B54FF400610848FFF78FF9B4
:1016800040F6FF20FFF7BAF94FF400610348FFF777
:1016900088F940F6FF20FFF7B1F910BD00140240B1
:1016A00070B504460D4601231A4629462046FFF729
:1016B00043FD70BD70B505460C460948008885425B
:1016C0000CDA08480088844208DA21462846FFF7E9
:1016D000E7FF054801880120FFF784FB70BD00008B
:1016E000280000202A000020340000204FF0D041C4
:1016F000088070474FF0D0414880704770B504466D
:1017000000F00CF8C5882B460348028821460020CB
:10171000FFF75EF970BD0000280000200148006856
:101720007047000030000020024A1080024A1180F9
:101730007047000034000020360000200149086096
:101740007047000030000020014908807047000009
:101750003400002010B59AB0A6480078401CA54976
:101760000870A548FFF7EAFF00214FF47840FFF723
:10177000DBFFA2480388A248028800210846FFF741
:1017800027F9FFF7CBFF00249EA12046FFF78CF935
:10179000FFF7C4FFC488A1A12046FFF785F9A6483A
:1017A000008849F2413188420ED1A3480188A3A0A4
:1017B000FEF764FDFFF7B2FFC0884004040CA3A14C
:1017C0002046FFF771F913E09B48008848F2525118
:1017D00088420DD19848018898A0FEF74FFDFFF789
:1017E0009DFFC0884004040C9DA12046FFF75CF9D2
:1017F000FFF794FFC08800EB400084B29DA1204613
:10180000FFF752F9A248FFF799FF4FF4FC60FFF78A
:101810009BFF784802789FA101A8FEF73BFDFFF7E8
:101820007DFFC0888004040C2046FFF767FFFFF7A8
:1018300075FFC0888004040C01A92046FFF734F925
:101840009748FFF77BFFFFF769FFC0888004040C0F
:101850002046FFF753FF1F20FFF776FFFFF75EFFDD
:10186000C0888004040C8FA12046FFF71DF94FF4B7
:101870007840FFF769FFE623D222AA213220FFF742
:10188000E3F9F023D222C8213220FFF7DDF94FF42B
:10189000FC60FFF759FFE623C822AA216420FFF766
:1018A000D3F9F023DC22C8210846FFF7CDF91F2029
:1018B000FFF74AFFE6236E22AA211046FFF7C4F97C
:1018C000F023DC22C8218220FFF7BEF96FF07F40B1
:1018D000FEF709FF49480088803883B248480288EB
:1018E00080210020FFF774F8FFF718FFC0888004FC
:1018F000040C2046FFF702FF1F20FFF725FFFFF72C
:101900000DFFC0888004040C69A12046FFF7CCF8C5
:101910004FF47840FFF718FF01201E236422C821EE
:1019200000903220FFF7E0F94FF4FC60FFF70CFF66
:10193000002028231422C8210090A020FFF7D4F90A
:101940001F20FFF701FF012014233222C82100903D
:10195000AA20FFF7C9F96FF07F40FEF7C4FE2748C1
:101960000088803883B22648028880210020FFF753
:101970002FF8FFF7D3FEC0888004040C2046FFF741
:10198000BDFE1F20FFF7E0FEFFF7C8FEC088800401
:10199000040C4AA12046FFF787F84FF47840FFF780
:1019A000D3FE00231422C8216420FFF7B1F84FF4BE
:1019B000FC60FFF7C9FE01230A22C8216420FFF75B
:1019C000A7F81F20FFF7C0FE00231422C8218C2097
:1019D000FFF79EF86FF07F40FEF785FE074800880E
:1019E000803883B20648028880210020FEF7F0FF8D
:1019F0001AB010BD0C000020100000202A000020AA
:101A000028000020424820332E3220696E6368206F
:101A10004C434420706172613A000000496D616777
:101A200065207265736F6C7574696F6E3A3234300D
:101A300078333230207078002E0000204C43442050
:101A400049443A20307825580D0A0000494C49395C
:101A5000333431204C43442064726976657200004F
:101A600053543737383956204C43442064726976D2
:101A7000657200005850543230343620546F75630C
:101A8000682050616420647269766572000000000D
:101A900018000020436F756E74203A2025642000E2
:101AA0002000002044726177206C696E653A000066
:101AB0004472617720526563743A00004472617722
:101AC000204369723A00000000BFFEE7704770478C
:101AD00029B1064A12680243044B1A6004E0034A23
:101AE00012688243014B1A60704700003038024090
:101AF00029B1064A12680243044B1A6004E0034A03
:101B000012688243014B1A60704700003838024067
:101B100070B5154C00251BE005EB4501134A505CE0
:101B20002146FEF70BFEE41C05EB45010F4A11446C
:101B300048782146FEF702FEE41C05EB45010B4AFE
:101B4000114488782146FEF7F9FDE41C681C85B233
:101B5000102DE1DB002004E0002104F8011B411CF2
:101B600088B22828F8D370BD740000202C01002012
:101B7000704700000CB500200190009034480068C8
:101B800040F480303249086000BF3148006800F4FA
:101B9000003000900198401C0190009818B90198FD
:101BA000B0F5A04FF1D12A48006800F4003010B120
:101BB0000120009001E0002000900098012846D10B
:101BC00023484030006840F080502149403108608F
:101BD0002048006840F440401E4908601C48083016
:101BE00000681B49083108600846006840F400405E
:101BF00008600846006840F4A05008601648091FB5
:101C00000860081F006840F08070091F086000BF6E
:101C10000F48006800F000700028F9D040F205700D
:101C20000E4908600A480830006820F0030008499F
:101C3000083108600846006840F00200086000BFF4
:101C400003480830006800F00C000828F8D10CBDEB
:101C5000003802400070004019544007003C024028
:101C600002480068401C01490860704704000020D9
:101C700010B51548006840F4700013490860134817
:101C8000006840F001001149086000200F49083148
:101C900008600E4800680E4908400C4908600D486D
:101CA000091D0860081F006820F48020091F0860D3
:101CB000002006490C310860FFF75CFF4FF0006020
:101CC00001498039086010BD88ED00E0003802400D
:101CD000FFFFF6FE1030002410B52DED028B012120
:101CE000114800F031F8D8B101210F4800F026F872
:101CF0000E4800F026F800B208EE100A00210B484A
:101D000000F033F8B8EEC80ADFED090A20EE200A29
:101D1000DFED080A80EE201A074880ED001A00BFA8
:101D2000BDEC028B10BD000000100040000400401C
:101D30000080BB450000824408000020CA430282A4
:101D400070470146486A704730B5024600200023BC
:101D50000024158A05EA0103958905EA010413B1F7
:101D60000CB1012000E0002030BD41627047024606
:101D70000020B1F5007F00D100BF13880B400BB1EC
:101D8000012000E000207047C1F308028280704704
:101D900000BFFEE708B500200090009800F0ACF806
:101DA00000F0CEF808BD000018B54A48006840F0C1
:101DB0000200484908600846006840F400100860C6
:101DC00044481030006840F48040424910310860B7
:101DD0004148006820F040403F49086008460068DC
:101DE00040F0004008603C480830006840F0404047
:101DF000394908310860081F006820F40040091FB5
:101E0000086035480C30006820F0404032490C3101
:101E100008603148406A20F070412F484162406AB2
:101E200040F0A0412C48416200202C490880091D47
:101E300008804FF45770091F0880081D008840F083
:101E40000200091D088000202549086700BF2448BA
:101E5000006F00F001000028F9D14FF48A6020499A
:101E600008671E480C3088671E48C867B820486756
:101E70000F200221002807DA0A07140E1A4A00F080
:101E80000F031B1FD45403E00A07130E174A135401
:101E900000BF0F20012181404209920002F1E0229F
:101EA000C2F8001100BF00200DE00021009100EBFE
:101EB00040010F4A1144BDF800200A809DF802201D
:101EC0008A70411C88B21028EFDB00200949087095
:101ED00018BD0000303802400004024000380040C5
:101EE000006002407400002018ED00E000E400E013
:101EF0002C0100207100002001B500200BE000EB58
:101F00004001064A1144BDF800200A809DF80220D5
:101F10008A70411C88B21028F1DB08BD2C0100201A
:101F200003B5102809DA00EB4001044A1144BDF85A
:101F300004200A809DF806208A700CBD2C01002028
:101F400010B500BF114800780028FBD1FFF7E0FD75
:101F500001200E4908703D200D49C8600846006FF9
:101F600020F00100086700BF0948006F00F0010081
:101F70000028F9D107480649C867B82048670846CD
:101F8000006F40F00100086710BD000071000020E4
:101F9000006002407400002030380A2801D201207D
:101FA00070470020704700BF704770B504464FF47B
:101FB000077094FBF0F0C6B24FF4077094FBF0F199
:101FC00000FB114085B205E04FF4077000F00AF8FD
:101FD000701EC6B2002EF7D115B1284600F002F8E7
:101FE00070BD00000146114A12884A434FF0E023B9
:101FF0005A6100229A611A46126942F001021A617E
:1020000000BF4FF0E022106900F001021AB100F4A5
:102010008032002AF5D04FF0E022126922F001024E
:102020004FF0E0231A6100229A61704702000020FD
:1020300070B504460E464FF40035E1B20748FFF78D
:10204000A3FE02E06D1E05B905E080210348FFF7FD
:102050008EFE0028F6D000BF204670BD0010014063
:102060000EB5FFF755F8FFF79FFE1748006802907E
:102070000298FFF741FFFFF763FF0620FEF7D8FF46
:1020800021E0FFF767FB4FF4FA70FFF78EFF0024A3
:1020900017E0FFF77FFE0C48001D00680190204606
:1020A0000199FFF73DFFFFF74BFF0020009002E092
:1020B0000098401C0090054900988842F8D3601CA5
:1020C00084B2102CE5DBDCE7DC20000820A107004F
:1020D0004FF04070E1EE100A7047000000FF000072
:1020E000FF000000000000000000000000000000F1
:1020F0000000000000001818181818180800081828
:10210000000000000000342424240000000000002F
:102110000000000000000016247F2424247E2424D4
:10212000000000000000083E6848681C1612127C7F
:1021300010100000000061D296740810162949C6DC
:10214000000000000000003C646438724ACE467F04
:10215000000000000000181818180000000000001F
:10216000000000000000040818103030303010105B
:10217000180C04000000201008080C0404040C08CB
:10218000181020000000080A341C6A080000000033
:102190000000000000000000001818187F18181830
:1021A00000000000000000000000000000001818FF
:1021B0000830000000000000000000003C000000AB
:1021C00000000000000000000000000000001818DF
:1021D0000000000000000206040C08081010202077
:1021E000400000000000003C6642475B7342663CD2
:1021F0000000000000000018784808080808087E61
:10220000000000000000003C460606040810207E86
:10221000000000000000007C0606043C0202067C70
:10222000000000000000000C1C14246444FF04049F
:10223000000000000000007E6060607E0202067CFC
:10224000000000000000001E306048764242623C00
:10225000000000000000007E0206040C0818103088
:10226000000000000000003C6242361C6642423C16
:10227000000000000000003C664242661A0204783A
:1022800000000000000000000018180000001818EE
:1022900000000000000000000018180000001818DE
:1022A00008300000000000000004183060100C0628
:1022B00000000000000000000000007E007E000022
:1022C000000000000000000000301804060C102080
:1022D000000000000000301C060606181000101058
:1022E0000000000000001C224141DDB5A5A5AF940F
:1022F000C0403C00000000181C342426627E43C10C
:10230000000000000000007C4642467C4242427CC5
:10231000000000000000001E204040404040603EA1
:10232000000000000000007C4642434343424678E0
:10233000000000000000007E6060607E6060607EE3
:10234000000000000000007E6060607E60606060F1
:10235000000000000000001E604040CE4242623E8D
:1023600000000000000000424242427E42424242DF
:10237000000000000000007E181818181818187EB9
:10238000000000000000007C0404040404044478FD
:10239000000000000000004244485070584C444285
:1023A0000000000000000020202020202020203EEF
:1023B000000000000000006266675F5B5BC1C1C196
:1023C00000000000000000626272525A4A4E464607
:1023D000000000000000003C6243C3C3C343623CF2
:1023E000000000000000007C464242467840404029
:1023F000000000000000003C6243C3C3C343623CD2
:10240000180F00000000007C6662667C6C646662E7
:10241000000000000000003E6040601C0602027CDC
:10242000000000000000007F18181818181818186D
:102430000000000000000042424242424242623C30
:1024400000000000000000C14342622624341C1832
:1024500000000000000000C1C141495B5B76666678
:102460000000000000000043663418181C2466C3F6
:1024700000000000000000C14266341C1818181843
:10248000000000000000007E02040C181020607E96
:102490000000000000001C10101010101010101090
:1024A00010101C000000402020101008080C04062A
:1024B0000200000000003C0C0C0C0C0C0C0C0C0C72
:1024C0000C0C3C00000000181C24620000000000FE
:1024D00000000000000000000000000000000000FC
:1024E0000000FF00000020100000000000000000BD
:1024F0000000000000000000003C06023E42467A58
:102500000000000000004040405C62424242427CC9
:102510000000000000000000001E20604060203E1F
:102520000000000000000202023E62424242663A9F
:102530000000000000000000003C62427E40603E5F
:102540000000000000000F1810107E101010101076
:102550000000000000000000003F66426658403E58
:1025600043423C0000004040405C624242424242E2
:102570000000000000001818007808080808087E0D
:10258000000000000000040C007C040404040404A7
:10259000040C78000000606060626C7870686462AF
:1025A0000000000000007808080808080808087EF5
:1025B000000000000000000000764B4B4B4B4B4BE3
:1025C0000000000000000000005C62424242424203
:1025D0000000000000000000003C62424342623CF8
:1025E0000000000000000000005C62424242427CA9
:1025F0004040400000000000003E62424242663A15
:102600000202020000000000006E72636060606001
:102610000000000000000000003E20203C06027C7C
:10262000000000000000001010FE10101010101E1E
:102630000000000000000000004242424242663AB0
:102640000000000000000000004342662434181817
:10265000000000000000000000C1C15B5A5E666619
:1026600000000000000000000062261C181C26620A
:1026700000000000000000000043426624341C18E3
:102680001830E00000000000007E060C1810207ECC
:102690000000000000000E18101010307010101014
:1026A00010180E000008080808080808080808089C
:1026B00008080800000030180808080C0E08080870
:1026C0000818300000000000000000714B060000F8
:1026D00000000000000000000000000000000000FA
:1026E00000000000000000000000000000000000EA
:1026F00000000000000000000000000000000000DA
:102700000000000000000000000000000003800145
:1027100080018001800180018001800180018001B1
:10272000800000000003C003C000000000000000A3
:10273000000000000000000000000000000E700E0D
:10274000700E700C3000000000000000000000005F
:102750000000000000000000000000000000000079
:102760000000000000000000000000000000000663
:1027700018063806307FFE0C300C300C300C307FE1
:10278000FE0C601C60186018600000000000000073
:10279000000000000000000000000000C000C00FAA
:1027A000F83CC831C031803D801F8003F001F80340
:1027B0001C030C031C3FF83FE0070006000000006C
:1027C00000000000000000000000001C007E0E63FE
:1027D0000C631863307E6000C001800300077C0E2C
:1027E000E61CC618C630C6607C0000000000000071
:1027F000000000000000000000000000000FE01CCE
:10280000F0387038701C601FC00F003F8C71CC60B6
:10281000EC607C70383CFC1FCE0000000000000023
:102820000000000000000000000000000003C001E4
:102830008001800180000000000000000000000016
:102840000000000000000000000000000000000088
:102850000000000000000000000000003000E00167
:10286000C0018003000700060006000E000E000EE7
:10287000000E00060007000300038001C000E00016
:1028800030000000000000000000000C0006000303
:1028900080018001C000E0006000600070007000F6
:1028A000700060006000E000C00180038006000C42
:1028B0000000000000000000000000000001801186
:1028C000881DB803C007E03DBC01880180000000FE
:1028D00000000000000000000000000000000000F8
:1028E00000000000000000000000000000000000E8
:1028F000000000018001800180018001807FFE01D5
:1029000080018001800180000000000000000000C4
:1029100000000000000000000000000000000000B7
:1029200000000000000000000000000000000000A7
:1029300000000003C003C001C001C003801F0000ED
:102940000000000000000000000000000000000087
:10295000000000000000000000000000000FF00078
:102960000000000000000000000000000000000067
:102970000000000000000000000000000000000057
:102980000000000000000000000000000000000047
:1029900000000003C003C003C000000000000000EE
:1029A000000000000000000000000000000018000F
:1029B000380030006000E000C001C0018003000367
:1029C0000006000E000C001C001800300000000083
:1029D0000000000000000000000000000001800F67
:1029E000F01C38381C301C707E70EE738E7E0E7CAE
:1029F0000C300C381C1E780FE000000000000000B6
:102A000000000000000000000000000000000007BF
:102A1000C01FC039C001C001C001C001C001C00158
:102A2000C001C001C03FFC3FFC00000000000000EE
:102A30000000000000000000000000000003801FF4
:102A4000F018380038001800380038007001E00332
:102A50008007001C003FFC3FFC000000000000005D
:102A60000000000000000000000000000007801FC0
:102A7000F0003800380038003007E007F000380078
:102A80001C001C001820F83FE000000000000000BF
:102A90000000000000000000000000000000000036
:102AA000F001B0033007300E301C30383070307F0A
:102AB000FE7FFE003000300030000000000000000B
:102AC0000000000000000000000000000000001FE7
:102AD000F818001800180018001FE000F8001C008B
:102AE0001C001C003800F01FC000000000000000A7
:102AF00000000000000000000000000000000003D3
:102B0000F80F001C001800300037F83C3C300C3047
:102B10000C380C381C1E380FF000000000000000BC
:102B20000000000000000000000000000000003F66
:102B3000FC001C001800380070006000E001C001BB
:102B4000800380070006000E000000000000000067
:102B50000000000000000000000000000003C01F93
:102B6000F8381C381C381C1C380FF007F01C78385B
:102B70001C300C381C3C380FF00000000000000036
:102B80000000000000000000000000000003801FA3
:102B9000F03838301C701C700C380C1FFC0FCC0047
:102BA0001C001800701FE01F8000000000000000E3
:102BB0000000000000000000000000000000000015
:102BC000000000000003C003C001800000000000FE
:102BD00000000003C003C003C000000000000000AC
:102BE00000000000000000000000000000000000E5
:102BF000000000000003C003C001800000000000CE
:102C000000000003C003C001C001C003800F00002A
:102C100000000000000000000000000000000000B4
:102C2000000000003800F001C007001E0038000E50
:102C300000078001C00070003000000000000000AC
:102C40000000000000000000000000000000000084
:102C50000000000000000000003FFC000000003FFA
:102C6000FC3FFC000000000000000000000000002D
:102C70000000000000000000000000000000000054
:102C80000000001C000F00038001E00078001C0021
:102C90007001E003800E000C000000000000000046
:102CA000000000000000000000000000000FC00055
:102CB000F0003800380038003803F00380030003C8
:102CC00000000000000780078000000000000000F6
:102CD000000000000000000000000000E007F80C09
:102CE0000C18063006700363F36633C673CC63CCEE
:102CF00062CC66CCE6C7FCE0006000700038101FB4
:102D0000F0000000000000000000000000000003D0
:102D1000C007E006E00E700E700C301C3818183F2B
:102D2000FC3FFC700E600EE0070000000000000099
:102D30000000000000000000000000000000003F54
:102D4000F03838381C381C38383FF03FF8381C3819
:102D50000C380C381C3FF83FE00000000000000079
:102D60000000000000000000000000000000E0077C
:102D7000FC1E043800380030007000700070003015
:102D80000038003C001F9C07FC0000000000000011
:102D90000000000000000000000000000000003FF4
:102DA000F03078301C300C300E300E300E300E30DB
:102DB0000E301C30383FF03FC00000000000000023
:102DC0000000000000000000000000000000001FE4
:102DD000F818001800180018001FF81FF81800183D
:102DE00000180018001FF81FF80000000000000085
:102DF0000000000000000000000000000000001FB4
:102E0000F818001800180018001FF81FF81800180C
:102E10000018001800180018000000000000000052
:102E20000000000000000000000000000000F007AB
:102E3000FC1E04380030007000700070FC700C70D4
:102E40000C300C380C1F1C07FC00000000000000B8
:102E50000000000000000000000000000000003042
:102E60000C300C300C300C300C3FFC3FFC300C3084
:102E70000C300C300C300C300C0000000000000056
:102E80000000000000000000000000000000003F03
:102E9000FC018001800180018001800180018001AE
:102EA00080018001803FFC3FFC000000000000002A
:102EB0000000000000000000000000000000001FF3
:102EC000F0003000300030003000300030003000C2
:102ED00030003000701DE01FC00000000000000046
:102EE00000000000000000000000000000000038AA
:102EF0001C387038E039C03B803F003F003B8039D0
:102F0000C038E038703838381C000000000000007D
:102F10000000000000000000000000000000001C95
:102F2000001C001C001C001C001C001C001C001CC1
:102F3000001C001C001FFC1FFC0000000000000023
:102F40000000000000000000000000000000003849
:102F50001C7C3C6C3E6E6E666E66CE63C66386619C
:102F60008660066006600660060000000000000043
:102F70000000000000000000000000000000003C15
:102F80000C3C0C3E0C360C330C338C318C31CC3079
:102F9000EC306C307C303C301C0000000000000045
:102FA0000000000000000000000000000001C00F51
:102FB000F81C3C381C700E700E60066006700E70B7
:102FC0000E700C381C1E780FE0000000000000009E
:102FD0000000000000000000000000000000003FB2
:102FE000F0383C381C380C380C381C38783FE03846
:102FF00000380038003800380000000000000000F1
:103000000000000000000000000000000001C00FF0
:10301000F81C3C381C700E700E60066006700E7056
:103020000E700C381C1E780FE0018001C000FF00FC
:103030003C00000000000000000000000000003F15
:10304000F0383838183818383838F03FC038E03899
:103050007038383838381C380E0000000000000086
:103060000000000000000000000000000001E00F70
:10307000F83800380038003C001F8003F00078006A
:103080001C001C001C38783FE0000000000000001D
:103090000000000000000000000000000000007FB1
:1030A000FE0180018001800180018001800180019A
:1030B000800180018001800180000000000000008C
:1030C00000000000000000000000000000000030D0
:1030D0000C300C300C300C300C300C300C300C3010
:1030E0000C300C381C1C380FF000000000000000F1
:1030F000000000000000000000000000000000E0F0
:1031000006700E700E381C381C1C181C380C300E43
:1031100070066007E003C003C0000000000000006C
:10312000000000000000000000000000000000603F
:10313000066006600660066186638673C673CE7697
:103140006C366C3C3C3C3C381C000000000000002D
:10315000000000000000000000000000000000303F
:103160001C38181C380E7007E003C003C007E00EBF
:10317000701C381838381C700E0000000000000069
:1031800000000000000000000000000000000070CF
:103190000E700C381C1C380E70066007E003C0016E
:1031A000800180018001800180000000000000009B
:1031B0000000000000000000000000000000003FD0
:1031C000FC001C0038007000E001C0038007000E06
:1031D000000C0018003FFC3FFC0000000000000055
:1031E000000000000000000000000007F007F006EB
:1031F000000600060006000600060006000600069F
:10320000000600060006000600060006000600078D
:10321000F000000000000000000000000018001C8A
:10322000000C000600070003000380018001C000BD
:10323000C000600070003000380018000C00000072
:1032400000000000000000000000000FE00FE000A0
:10325000600060006000600060006000600060006E
:103260006000600060006000600060006000600F4F
:10327000E00000000000000000000000000000036B
:10328000C006C006600C301818301C00000000009A
:10329000000000000000000000000000000000002E
:1032A000000000000000000000000000000000001E
:1032B000000000000000000000000000000000000E
:1032C000000000000000000000000000000000FFFF
:1032D000FF0000000000000000000000001E0003CE
:1032E000800000000000000000000000000000005E
:1032F00000000000000000000000000000000000CE
:1033000000000000000000000000000000000000BD
:1033100000000000001FF01038001C001C0FFC1CF7
:103320001C381C381C3CFC1FDC00000000000000A6
:10333000000000000000000000000000003800381D
:1033400000380038003BF83E1C3C1C380C380C3868
:103350000C380C381C3C781FE00000000000000016
:10336000000000000000000000000000000000005D
:10337000000000000007F80E001C0038003800387C
:103380000038001C000F1807F800000000000000C3
:1033900000000000000000000000000000001C0011
:1033A0001C001C001C0FFC1C1C381C301C301C306A
:1033B0001C301C383C1CFC0F9C000000000000006E
:1033C00000000000000000000000000000000000FD
:1033D00000000000000FF01C38381C300C3FFC309F
:1033E00000300038001E0C07FC0000000000000048
:1033F0000000000000000000000000003C01FE038F
:10340000800300030003007FFC7FFC030003000334
:1034100000030003000300030000000000000000A0
:10342000000000000000000000000000000000009C
:1034300000000000000FFE1C383818381818381F1C
:10344000F03B8030003FF01FFC300E700E381C1F28
:10345000F800000000000000000000000038003804
:1034600000380038003BF83E383C1C381C381C380B
:103470001C381C381C381C381C00000000000000E0
:103480000000000000000000000000018003C003F5
:10349000C0000000001FC001C001C001C001C00188
:1034A000C001C001C001C03FFC00000000000000DE
:1034B000000000000000000000000000200070007C
:1034C00070000000003FF00070007000700070009D
:1034D0007000700070007000700070007020E03F9D
:1034E000C0000000000000000000000000180018EC
:1034F0000018001800183C187018E01B801F001BF3
:103500008019E018701838181C0000000000000036
:10351000000000000000000000000000001FC001CB
:10352000C001C001C001C001C001C001C001C00193
:10353000C001C001C001C03FFC000000000000004D
:10354000000000000000000000000000000000007B
:1035500000000000006F3C79EE71CE718E718E71AB
:103560008E718E718E718E718E00000000000000D1
:10357000000000000000000000000000000000004B
:1035800000000000003BF83E383C1C381C381C385A
:103590001C381C381C381C381C00000000000000BF
:1035A000000000000000000000000000000000001B
:1035B00000000000000FF01C3C381C700E700E70F4
:1035C0000E700C381C1E780FE00000000000000098
:1035D00000000000000000000000000000000000EB
:1035E00000000000003BF83E1C3C1C380C380C3836
:1035F0000C380C381C3C783FE03800380038003874
:1036000000000000000000000000000000000000BA
:1036100000000000000FFC1C1C381C301C301C304B
:103620001C301C383C1CFC0F9C001C001C001C00A7
:103630001C0000000000000000000000000000006E
:10364000000000000019F81F1C1C0C180E180018B0
:10365000001800180018001800000000000000000A
:10366000000000000000000000000000000000005A
:1036700000000000000FF81C0018001E000FC00121
:10368000F80018001818381FF000000000000000B3
:103690000000000000000000000000000000000624
:1036A00000060006007FFC06000600060006000675
:1036B0000006000700078401FC0000000000000075
:1036C00000000000000000000000000000000000FA
:1036D0000000000000381C381C381C381C381C380E
:1036E0001C381C383C1CFC0FDC00000000000000F3
:1036F00000000000000000000000000000000000CA
:103700000000000000700C381C38181C380C300EFB
:1037100070066007E003C003C00000000000000066
:103720000000000000000000000000000000000099
:103730000000000000600660066186738E73CC3363
:10374000CC366C366C3C3C3C38000000000000007D
:103750000000000000000000000000000000000069
:103760000000000000381C1C380E7007E003C00386
:10377000C007E00E701C38381E000000000000007A
:103780000000000000000000000000000000000039
:103790000000000000700C381C38181C380C300E6B
:1037A00070066007E003C003C0038007000E007CC2
:1037B0000000000000000000000000000000000009
:1037C00000000000001FF80038007000E001C00396
:1037D0008007000C001FFC3FFC0000000000000000
:1037E0000000000000000000000000007801F80365
:1037F00080038003800380038003003F003E0003BA
:103800000003800380038003800380038001C000E5
:10381000F8000000000000018001800180018001AB
:103820008001800180018001800180018001800190
:103830008001800180018001800180018001800180
:1038400080000000000000000000001E001F80013A
:103850008001C001C001C001C000C000FC007C00AC
:10386000C001C001C001C001C001C001C003801F70
:103870000000000000000000000000000000000048
:103880000000000000000000001C003F0671CE6038
:10389000FC0000000000000000000000000000002C
:1038A0000000000000000000000000000000000018
:1038B0000000000000000000000000000000000008
:1038C00000000000000000000000000000000000F8
:1038D00000000000000000000000000000000000E8
:1038E00000000000000000000000000000000000D8
:1038F00000000000000000000000000000000000C8
:1039000000000000000000000000000000000000B7
:103910000000000000003C00003C00003C00003CB7
:1039200000003C00003C00003C00003C00003C006B
:10393000003C00003C00003C00003C00003C00005B
:103940000000000000003C00007E00003C00000081
:103950000000000000000000000000000000000067
:103960000000000000000000000000000000000057
:10397000000000000003C3E003C3E003C3C003C3AF
:10398000C003C3C003C3C003C1C0000000000000E7
:103990000000000000000000000000000000000027
:1039A0000000000000000000000000000000000017
:1039B0000000000000000000000000000000000007
:1039C00000000000000000000000000000000000F7
:1039D000000000000000000000000001E0E001C065
:1039E000E001C0E001C0E03FFFFE3FFFFE03C1C0B9
:1039F0000381C00381C00381C07FFFFC7FFFFC0700
:103A00008380070380070380070380070780000087
:103A100000000000000000000000000000000000A6
:103A20000000000000000000000000000000000096
:103A30000000000700000F00000E0001FFF007FF6C
:103A4000F01F0E001E1E001E1C001E1C000FDC00BE
:103A500007FC0000FF80003FF00038F800387800D5
:103A6000783C0070783071F83FFFE01FFF0000E005
:103A70000000E00000E00000000000000000000086
:103A80000000000000000000000000000000000036
:103A900000000000000F800F3FE01E78703C707047
:103AA000707070E07071C03FE3801FC700000E00AF
:103AB000001C0000780000F0F001E7FC03CF0E07C7
:103AC0008E0E0F0E0E1E0E0E3C07BC7003F800008B
:103AD00000000000000000000000000000000000E6
:103AE00000000000000000000000000000000000D6
:103AF000000000000000000001FF0007FF800F032E
:103B0000C00F03C00F03C00F0780079F0003FE0014
:103B100003F0000FF83C3E7C3C3C1F3C780FF878EB
:103B200007F87C01F03E03F81FFFFC07FE1F0000B2
:103B30000000000000000000000000000000000085
:103B40000000000000000000000000000000000075
:103B50000000000000003E00003C00003C00003C73
:103B600000003C00003C00003C00000000000000A1
:103B70000000000000000000000000000000000045
:103B80000000000000000000000000000000000035
:103B90000000000000000000000000000000000025
:103BA0000000000000000000000000000000000015
:103BB00000000000800001C0000780000F00001E10
:103BC00000003C0000780000F00000E00001E00090
:103BD00001E00001C00003C00003C00001C00001FB
:103BE000E00001E00000F00000F000007800003C80
:103BF00000001E00000F000007C00001C000000010
:103C000000000000000000000000000000000000B4
:103C1000000000000003C00001E00000F000007C94
:103C200000003E00001E00000F000007800007801B
:103C30000003800003C00003C00003C00003C000F5
:103C40000380000780000780000F00001E00003C7A
:103C50000000780000F00001E00003800000000098
:103C60000000000000000000000000000000000054
:103C70000000000000001C00001C000018000F18CD
:103C8000F007DBE0007F0000FF0007DBE00E1870AC
:103C9000001800001C00001C0000000000000000D4
:103CA0000000000000000000000000000000000014
:103CB0000000000000000000000000000000000004
:103CC00000000000000000000000000000000000F4
:103CD00000000000000000000000000000000000E4
:103CE00000000000003C00003C00003C00003C00E4
:103CF000003C00003C003FFFFC3FFFFC003C00009C
:103D00003C00003C00003C00003C000000000000C3
:103D100000000000000000000000000000000000A3
:103D20000000000000000000000000000000000093
:103D30000000000000000000000000000000000083
:103D40000000000000000000000000000000000073
:103D50000000000000000000000000000000000063
:103D60000000007C00007E00007E00003E00001E7F
:103D700000003C0000F80007E00004000000000024
:103D80000000000000000000000000000000000033
:103D90000000000000000000000000000000000023
:103DA0000000000000000000000000000000000013
:103DB00000000000000003FFE003FFE0000000003F
:103DC00000000000000000000000000000000000F3
:103DD00000000000000000000000000000000000E3
:103DE00000000000000000000000000000000000D3
:103DF00000000000000000000000000000000000C3
:103E000000000000000000000000000000000000B2
:103E100000000000000000000000000000000000A2
:103E20000000007C0000FE0000FE00007E0000009C
:103E30000000000000000000000000000000000082
:103E40000000000000000000000000000000000072
:103E500000000000000000780000F00000E0000119
:103E6000E00003C0000380000780000F00000E0088
:103E7000001E00003C0000380000700000F0000050
:103E8000E00001C00003C0000780000700000F0031
:103E9000001E00001C0000000000000000000000E8
:103EA0000000000000000000000000000000000012
:103EB000000000000000000000000001FFC007FF3C
:103EC000E00F00F01E00781E003C3C00FC3C07FCAC
:103ED0003C1FBC3C7C1C3DF03C3FC03C3F003C1EBA
:103EE00000381E00780F80F007FFE001FF8000001F
:103EF00000000000000000000000000000000000C2
:103F000000000000000000000000000000000000B1
:103F10000000000000000000000000007E0003FE22
:103F2000001FDE000E1E00001E00001E00001E000E
:103F3000001E00001E00001E00001E00001E0000EB
:103F40001E00001E00001E000FFFF80FFFF800000B
:103F50000000000000000000000000000000000061
:103F60000000000000000000000000000000000051
:103F7000000000000000000000000003FF800FFFB1
:103F8000E00E01F00000F00000F00000F00000F092
:103F90000001E00003C0000F80003E00007C000133
:103FA000F00003C0000F80001FFFFC1FFFFC00009B
:103FB0000000000000000000000000000000000001
:103FC00000000000000000000000000000000000F1
:103FD00000000000000000000000000FFF800FFF45
:103FE000E00001E00000F00000F00001E00003C08C
:103FF00001FF0001FFC00003F0000078000078001E
:1040000000780000780001F00FFFC00FFF000000F3
:1040100000000000000000000000000000000000A0
:104020000000000000000000000000000000000090
:104030000000000000000000000000000FC0001F92
:10404000C0003FC0007BC000F3C001E3C003C3C099
:104050000783C00F03C01C03C03803C07FFFFE7F6F
:10406000FFFE0003C00003C00003C00003C0000047
:104070000000000000000000000000000000000040
:104080000000000000000000000000000000000030
:1040900000000000000000000000000FFFE00FFF24
:1040A000E00F00000F00000F00000F00000F0000E5
:1040B0000FFF800FFFE00000F000007800007800A4
:1040C00000780000F00003E00FFFC00FFE000000CA
:1040D00000000000000000000000000000000000E0
:1040E00000000000000000000000000000000000D0
:1040F0000000000000000000000000003FF001FF91
:10410000F003E0000780000F00001E00001E1F00EB
:104110001FFFE01FC1F81E00781E003C1E003C1E61
:10412000003C0F00780F80F807FFE001FF800000DF
:10413000000000000000000000000000000000007F
:10414000000000000000000000000000000000006F
:1041500000000000000000000000001FFFFC1FFF27
:10416000FC0000780000F00000E00001E00003C067
:10417000000780000F00000F00001E00003C000040
:10418000780000F00001F00001E00003C000000032
:10419000000000000000000000000000000000001F
:1041A000000000000000000000000000000000000F
:1041B000000000000000000000000003FFE00FE32B
:1041C000F00F00781E00781E00780F00F007E3E083
:1041D00001FF8001FF8007E7E00F00F81E00781E56
:1041E000003C1E007C1F00F80FFFF003FFC0000022
:1041F00000000000000000000000000000000000BF
:1042000000000000000000000000000000000000AE
:10421000000000000000000000000003FF800FC746
:10422000E01E00F01E00783C00783C00783C00382E
:104230001E00780FEFF807FFB80000780000780044
:1042400000F00001E0000FC00FFF000FF0000000C1
:10425000000000000000000000000000000000005E
:10426000000000000000000000000000000000004E
:10427000000000000000000000000000000000003E
:1042800000000000000000007E00007E00007E00B4
:104290000018000000000000000000000000000006
:1042A0000000003C00007E00007E00003E00000098
:1042B00000000000000000000000000000000000FE
:1042C00000000000000000000000000000000000EE
:1042D00000000000000000000000000000000000DE
:1042E00000000000000000007E00007E00007E0054
:1042F00000180000000000000000000000000000A6
:104300000000003E00007E00007F00001F00001E35
:1043100000001E0000FC0007F00004000000000088
:10432000000000000000000000000000000000008D
:10433000000000000000000000000000000000007D
:10434000000000400001E00007C0001F00007E00E8
:1043500001F80003E0000F80000F800003E0000080
:10436000F800003E00000F800003E00000E00000C5
:10437000000000000000000000000000000000003D
:10438000000000000000000000000000000000002D
:10439000000000000000000000000000000000001D
:1043A000000000000000000000000000000000000D
:1043B0001FFFF80000000000000000001FFFF81FB2
:1043C000FFF80000000000000000000000000000F6
:1043D00000000000000000000000000000000000DD
:1043E00000000000000000000000000000000000CD
:1043F00000000000000000000000000000000000BD
:104400000000000007800003E00000F800003E000C
:10441000000F800003E00000F80001F00007C0007A
:104420001F00007C0001F00007C000030000000036
:10443000000000000000000000000000000000007C
:10444000000000000000000000000000000000006C
:10445000000000000001C00001FE00007F80000796
:10446000C00001E00000F00000F00001F00003E0F7
:10447000007FC0007E00007000007000007000002F
:10448000000000000000F80000F80000F800000044
:10449000000000000000000000000000000000001C
:1044A000000000000000000000000000000000000C
:1044B0000000000000001F8000FFF003C0780780AC
:1044C0001C0E000E1C000E3C000F383FC778FFC7C3
:1044D00070E3C771C3C7F3C387E3C387E3878EE382
:1044E000878EE3CF8EE3FFFC71F9F070000070005F
:1044F000003800003C00000F01C007FFC0000000B2
:1045000000000000000000000000000000000000AB
:104510000000000000000000000000007E00007F9E
:104520000000FF0000E78001E78003C3C003C3C0B1
:104530000781E00781E00F00F00F00F81FFFF81F70
:10454000FFFC3C003C3C001E78001EF0000F000009
:10455000000000000000000000000000000000005B
:10456000000000000000000000000000000000004B
:1045700000000000000000000000001FFFC01FFF3F
:10458000F01E00F01E00781E00781E00F01E01F0E4
:104590001FFFC01FFFE01E01F81E00781E003C1E1A
:1045A000003C1E00781E00F81FFFE01FFF00000007
:1045B00000000000000000000000000000000000FB
:1045C00000000000000000000000000000000000EB
:1045D000000000000000000000000000FFF803FFE2
:1045E000F807C0000F00001E00001E00003C000085
:1045F0003C00003C00003C00003C00003E00001E6F
:1046000000000F00000FC00803FFF800FFF80000D3
:10461000000000000000000000000000000000009A
:10462000000000000000000000000000000000008A
:1046300000000000000000000000003FFF003FFFFE
:10464000E03C01F03C00783C003C3C003C3C003C41
:104650003C001E3C001E3C001E3C003C3C003C3C20
:1046600000783C00F83C07E03FFFC03FFC00000042
:10467000000000000000000000000000000000003A
:10468000000000000000000000000000000000002A
:1046900000000000000000000000000FFFF00FFF0E
:1046A000F00F00000F00000F00000F00000F0000CF
:1046B0000FFFF00FFFF00F00000F00000F00000FC2
:1046C00000000F00000F00000FFFF00FFFF00000D0
:1046D00000000000000000000000000000000000DA
:1046E00000000000000000000000000000000000CA
:1046F00000000000000000000000000FFFF00FFFAE
:10470000F00F00000F00000F00000F00000F00006E
:104710000FFFF00FFFF00F00000F00000F00000F61
:1047200000000F00000F00000F00000F000000004D
:104730000000000000000000000000000000000079
:104740000000000000000000000000000000000069
:10475000000000000000000000000000FFFC03FF5C
:10476000FC0FC0041F00001E00003C00003C0000C5
:10477000780FFC780FFC78003C3C003C3C003C3E51
:10478000003C1F003C0FC03C03FFFC00FFF8000092
:104790000000000000000000000000000000000019
:1047A0000000000000000000000000000000000009
:1047B00000000000000000000000003C003C3C0045
:1047C0003C3C003C3C003C3C003C3C003C3C003C55
:1047D0003FFFFC3FFFFC3C003C3C003C3C003C3CC1
:1047E000003C3C003C3C003C3C003C3C003C0000AD
:1047F00000000000000000000000000000000000B9
:1048000000000000000000000000000000000000A8
:1048100000000000000000000000000FFFF80FFF84
:10482000F8003C00003C00003C00003C00003C0064
:10483000003C00003C00003C00003C00003C00004C
:104840003C00003C00003C000FFFF80FFFF80000A8
:104850000000000000000000000000000000000058
:104860000000000000000000000000000000000048
:1048700000000000000000000000000FFFE00FFF3C
:10488000E00001E00001E00001E00001E00001E0E3
:104890000001E00001E00001E00001E00001E000B3
:1048A00001E00003C00C07C00FFF8007FE000000FE
:1048B00000000000000000000000000000000000F8
:1048C00000000000000000000000000000000000E8
:1048D00000000000000000000000001E00781E0123
:1048E000F01E03C01E07801E1F001E3C001E780025
:1048F0001EF0001FF0001EF8001E3C001E1E001ED1
:104900000F801E07C01E01E01E00F81E007C000084
:104910000000000000000000000000000000000097
:104920000000000000000000000000000000000087
:104930000000000000000000000000078000078069
:1049400000078000078000078000078000078000C4
:1049500007800007800007800007800007800007AD
:10496000800007800007800007FFF807FFF80000BD
:104970000000000000000000000000000000000037
:104980000000000000000000000000000000000027
:1049900000000000000000000000003E007C3F001E
:1049A000FC3F81DC3B81DC3BC39C39C39C38E71C6A
:1049B00038EF1C387E1C387C1E383C1E78001E7870
:1049C000001E78001E78001E78001E78001E000071
:1049D00000000000000000000000000000000000D7
:1049E00000000000000000000000000000000000C7
:1049F00000000000000000000000001F003C1F80BD
:104A00003C1FC03C1DC03C1DE03C1CF03C1C783CE5
:104A10001C783C1C3C3C1C1E3C1C0F3C1C0F3C1CD2
:104A200007BC1C03FC1C01FC1C00FC1C00FC00005F
:104A30000000000000000000000000000000000076
:104A40000000000000000000000000000000000066
:104A5000000000000000000000000001FFC007FF90
:104A6000F00F00F81E007C3C003C3C001E78001E4D
:104A700078001E78001E78001E78001E3C003C3C2A
:104A8000003C1E00781F00F007FFE001FF800000DF
:104A90000000000000000000000000000000000016
:104AA0000000000000000000000000000000000006
:104AB00000000000000000000000001FFF801FFF3A
:104AC000F01E00F81E007C1E003C1E003C1E003C38
:104AD0001E00781E03F01FFFC01FFE001E00001EF8
:104AE00000001E00001E00001E00001E000000004E
:104AF00000000000000000000000000000000000B6
:104B000000000000000000000000000000000000A5
:104B1000000000000000000000000001FFC007FFCF
:104B2000F00F00F81E007C3C003C3C001E78001E8C
:104B300078001E78001E78001E78001E3C003C3C69
:104B4000003C1E00781F80F007FFE001FF80003C62
:104B500000003C00001F06000FFF0001F8000000ED
:104B60000000000000000000000000000000000045
:104B700000000000000000000000000FFF800FFF99
:104B8000E00E01F00E00F00E00F00E00F00E01F04D
:104B90000FFFC00FFF000E1F000E07800E03C00E98
:104BA00001E00E00F00E00F80E00780E003C000050
:104BB00000000000000000000000000000000000F5
:104BC00000000000000000000000000000000000E5
:104BD000000000000000000000000003FFF00FFFD5
:104BE000F01F00001E00001E00001F00000FC0008C
:104BF00007FC0000FF80000FF00001F800007800C3
:104C000000780000782000F83FFFE03FFF800000C0
:104C10000000000000000000000000000000000094
:104C20000000000000000000000000000000000084
:104C300000000000000000000000003FFFFC3FFFFC
:104C4000FC003C00003C00003C00003C00003C003C
:104C5000003C00003C00003C00003C00003C000028
:104C60003C00003C00003C00003C00003C00000018
:104C70000000000000000000000000000000000034
:104C80000000000000000000000000000000000024
:104C900000000000000000000000003C003C3C0060
:104CA0003C3C003C3C003C3C003C3C003C3C003C70
:104CB0003C003C3C003C3C003C3C003C3C003C3C60
:104CC000003C1E00781F00F80FFFE003FF8000008B
:104CD00000000000000000000000000000000000D4
:104CE00000000000000000000000000000000000C4
:104CF0000000000000000000000000F8000F780035
:104D00001E3C001E3C003C1E00381E00780F007048
:104D10000F00F00781E00781E003C3C003E3C00197
:104D2000E78000F78000FF00007E00007E000000AA
:104D30000000000000000000000000000000000073
:104D40000000000000000000000000000000000063
:104D5000000000000000000000000078000E780055
:104D60000E78000E78001E38001E38001E383C1CDD
:104D7000383C1C387E1C387F1C3CE71C3CE79C3DC3
:104D8000C39C1DC3DC1F81DC1F80F81F00F80000DE
:104D90000000000000000000000000000000000013
:104DA0000000000000000000000000000000000003
:104DB00000000000000000000000003C003C1E005D
:104DC000780F00F00781E003C3C001E78000FF0017
:104DD000007E00007E0000FF0001FF8003E7C007A7
:104DE000C3E00F81F01F00F83E007C7C003E000015
:104DF00000000000000000000000000000000000B3
:104E000000000000000000000000000000000000A2
:104E1000000000000000000000000078001F3C00BF
:104E20003E1E007C1F00780F80F007C1E003E3C046
:104E300001E78000FF00007E00003C00003C000015
:104E40003C00003C00003C00003C00003C00000036
:104E50000000000000000000000000000000000052
:104E60000000000000000000000000000000000042
:104E700000000000000000000000001FFFFC1FFFFA
:104E8000FC0000F80001E00003C0000780000F00F4
:104E9000001E00003C0000780000F00003E0000766
:104EA000C0000F80001F00003FFFFC3FFFFC000020
:104EB00000000000000000000000000000000000F2
:104EC00000000000000000000000000000000000E2
:104ED000000000000001FFC001FFC001E00001E090
:104EE0000001E00001E00001E00001E00001E0005D
:104EF00001E00001E00001E00001E00001E000014C
:104F0000E00001E00001E00001E00001E00001E05C
:104F10000001E00001E00001E00001FFC00000002E
:104F20000000000000000000000000000000000081
:104F300000000000000E00000F00000700000380CA
:104F40000003C00001E00000E00000F00000780075
:104F5000003800003C00001E00000E00000F0000A2
:104F600007800003800001C00001E00000E00000B5
:104F70007000007800003C0000000000000000000D
:104F80000000000000000000000000000000000021
:104F9000000000000003FF8003FF8000078000077F
:104FA00080000780000780000780000780000780DE
:104FB000000780000780000780000780000780004E
:104FC0000780000780000780000780000780000737
:104FD0008000078000078000078003FF800000003A
:104FE00000000000000000000000000000000000C1
:104FF0000000000000000000000000003C00007EF7
:105000000000E70001C3800381C00700E00E00F04C
:105010001E007800000000000000000000000000FA
:105020000000000000000000000000000000000080
:105030000000000000000000000000000000000070
:105040000000000000000000000000000000000060
:105050000000000000000000000000000000000050
:105060000000000000000000000000000000000040
:105070000000000000000000000000000000000030
:105080000000000000000000000000000000000020
:1050900000000000000000FFFFFFFFFFFF00000016
:1050A0000000000000000000000000000000000000
:1050B00000000000000F800003E00000F800003C4A
:1050C00000000000000000000000000000000000E0
:1050D00000000000000000000000000000000000D0
:1050E00000000000000000000000000000000000C0
:1050F00000000000000000000000000000000000B0
:10510000000000000000000000000000000000009F
:10511000000000000000000000000000000000008F
:105120000000000000000007FFC007E7F00000F0EB
:1051300000007800007800FFF807FFF80F00781EE5
:1051400000781E00781E03F80FFFF807FC780000B7
:10515000000000000000000000000000000000004F
:10516000000000000000000000000000000000003F
:1051700000000000001E00001E00001E00001E00B7
:10518000001E00001E00001E7FE01EFFF01FC07802
:105190001F00781E003C1E003C1E003C1E003C1EF2
:1051A00000381E00781E00F01FFFE007FF0000001F
:1051B00000000000000000000000000000000000EF
:1051C00000000000000000000000000000000000DF
:1051D00000000000000000000000000000000000CF
:1051E0000000000000000000FFF003FFF007C00017
:1051F0000F80000F00001E00001E00001E00000FA8
:1052000000000F800007C00003FFF000FFF0000067
:10521000000000000000000000000000000000008E
:10522000000000000000000000000000000000007E
:105230000000000000000078000078000078000006
:105240007800007800007801FFF807FFF80F007879
:105250001E00781E00783C00783C00783C00781CEA
:1052600000781E01F81F03F80FFF7803FC78000098
:10527000000000000000000000000000000000002E
:10528000000000000000000000000000000000001E
:10529000000000000000000000000000000000000E
:1052A0000000000000000001FFC007E3F00F00F85D
:1052B0001E00781E003C1FFFFC1FFFFC1C00001E90
:1052C00000001E00000F800007FFF801FFF800003B
:1052D00000000000000000000000000000000000CE
:1052E00000000000000000000000000000000000BE
:1052F00000000000000003FC001FFE003E000078DC
:10530000000078000070000070000070003FFFFC9B
:105310003FFFFC0070000070000070000070000093
:10532000700000700000700000700000700000004D
:10533000000000000000000000000000000000006D
:10534000000000000000000000000000000000005D
:10535000000000000000000000000000000000004D
:105360000000000000000003FFFC07C3FC0F00F07A
:105370001E00F01E00F00F00F00F83E00FFFC01EB4
:105380007C001C00001F00000FFFF00FFFFC1E0040
:105390003C3C003C3C003C1F81F80FFFE000380023
:1053A00000000000000000000000000000000000FD
:1053B00000000000001E00001E00001E00001E0075
:1053C000001E00001E00001E7FE01EFFF01FC0F048
:1053D0001F00781E00781E00781E00781E00781EC0
:1053E00000781E00781E00781E00781E00780000ED
:1053F00000000000000000000000000000000000AD
:10540000000000000000000000000000000000009C
:105410000000000000003C00007E00007E00003C18
:10542000000000000000000FFE000FFE00001E0044
:10543000001E00001E00001E00001E00001E0000D6
:105440001E00001E00001E000FFFF80FFFF80000F6
:10545000000000000000000000000000000000004C
:10546000000000000000000000000000000000003C
:1054700000000000000003800007E00007E00003D8
:10548000800000000000000FFFC00FFFC00003C03D
:105490000003C00003C00003C00003C00003C0003D
:1054A00003C00003C00003C00003C00003C000032A
:1054B000C00003C00007801E3F001FFE0001C000A7
:1054C00000000000000000000000000000000000DC
:1054D00000000000000F00000F00000F00000F0090
:1054E000000F00000F00000F00F80F01E00F07C0D1
:1054F0000F1F000F3C000FF8000FF8000F3E000FC9
:105500001F000F07C00F03E00F00F80F007C000022
:10551000000000000000000000000000000000008B
:10552000000000000000000000000000000000007B
:1055300000000000000FFE000FFE00001E00001E15
:1055400000001E00001E00001E00001E00001E00C5
:10555000001E00001E00001E00001E00001E0000B5
:105560001E00001E00001E000FFFF80FFFF80000D5
:10557000000000000000000000000000000000002B
:10558000000000000000000000000000000000001B
:10559000000000000000000000000000000000000B
:1055A0000000000000000039F9F83BBBBC3E3E1C87
:1055B0003C3E1C383C1C383C1C383C1C383C1C38DD
:1055C0003C1C383C1C383C1C383C1C383C1C000043
:1055D00000000000000000000000000000000000CB
:1055E00000000000000000000000000000000000BB
:1055F00000000000000000000000000000000000AB
:10560000000000000000001E7FE01EFFF01FC0F041
:105610001F00781E00781E00781E00781E00781E7D
:1056200000781E00781E00781E00781E00780000AA
:10563000000000000000000000000000000000006A
:10564000000000000000000000000000000000005A
:10565000000000000000000000000000000000004A
:105660000000000000000001FFC007E7F00F00F895
:105670001E003C3C003C3C003C3C003C3C003C3CB4
:10568000003C1E00781F00F007FFE001FF800000D3
:10569000000000000000000000000000000000000A
:1056A00000000000000000000000000000000000FA
:1056B00000000000000000000000000000000000EA
:1056C000000000000000001E7FE01EFFF01FC078F9
:1056D0001F00781E003C1E003C1E003C1E003C1EAD
:1056E00000381E00781E00F01FFFE01FFF001E00A4
:1056F000001E00001E00001E00001E000000000032
:105700000000000000000000000000000000000099
:105710000000000000000000000000000000000089
:105720000000000000000001FFF807F7F80F007804
:105730001E00781E00783C00783C00783C00781C05
:1057400000781E01F81F03F80FFF7803FC780000B3
:1057500078000078000078000078000078000000F1
:105760000000000000000000000000000000000039
:105770000000000000000000000000000000000029
:10578000000000000000000F1FF00F7FF80FE03C4A
:105790000F803C0F003C0F00000F00000F00000FB7
:1057A00000000F00000F00000F00000F00000000BD
:1057B00000000000000000000000000000000000E9
:1057C00000000000000000000000000000000000D9
:1057D00000000000000000000000000000000000C9
:1057E0000000000000000001FFE007E1E00F000002
:1057F0000F000007800003FC0000FFC0000FF00056
:1058000000F00000780000F00FFFE00FFF800000C4
:105810000000000000000000000000000000000088
:105820000000000000000000000000000000000078
:10583000000000000000000000000001E00001E0A6
:105840000001E00001E0007FFFF87FFFF801E000C9
:1058500001E00001E00001E00001E00001E00001E2
:10586000E00001E00000F000007FF8003FF80000D9
:105870000000000000000000000000000000000028
:105880000000000000000000000000000000000018
:105890000000000000000000000000000000000008
:1058A000000000000000001E00781E00781E007836
:1058B0001E00781E00781E00781E00781E00781EDC
:1058C00000780E00F80F03F807FF7803FC7800005B
:1058D00000000000000000000000000000000000C8
:1058E00000000000000000000000000000000000B8
:1058F00000000000000000000000000000000000A8
:10590000000000000000003C003C1E007C1E0078EF
:105910000F00F00F80F00781E003C3C003C3C00194
:10592000E78000E70000FF00007E00003C00000070
:105930000000000000000000000000000000000067
:105940000000000000000000000000000000000057
:105950000000000000000000000000000000000047
:105960000000000000000078000E78001E78001E85
:10597000383C1E383C1C3C7E1C3C7E3C1CE73C1CDE
:10598000E7B81DC3B81FC3F80F81F80F81F00000FE
:105990000000000000000000000000000000000007
:1059A00000000000000000000000000000000000F7
:1059B00000000000000000000000000000000000E7
:1059C000000000000000001F007C0F80F007C1E015
:1059D00003E3C000F780007F00003E0000FF0001ED
:1059E000E78003C3C00781F01F00F83E007C000081
:1059F00000000000000000000000000000000000A7
:105A00000000000000000000000000000000000096
:105A10000000000000000000000000000000000086
:105A2000000000000000003C003C1E003C1E00780E
:105A30000F00F00780F00781E003C1C003C3C0017D
:105A4000E78000F78000FF00007E00003E00003C81
:105A50000000780001F0007FE0007F80000000007F
:105A60000000000000000000000000000000000036
:105A70000000000000000000000000000000000026
:105A8000000000000000000FFFF00FFFF00001E039
:105A90000007C0000F80001E00003C0000F800015D
:105AA000E00003C0000780000FFFF80FFFF80000C0
:105AB00000000000000000000000000000000000E6
:105AC00000000000000000000000000000000000D6
:105AD00000000000000007E0001FE0003C0000386C
