:020000040800F2
:10000000C00700203D020008851C0008B50A000852
:100010003D1C0008C50600085F270008000000001E
:10002000000000000000000000000000F91D0008B2
:10003000E906000800000000151D0008291F00083F
:10004000570200085702000857020008570200082C
:10005000570200085702000857020008570200081C
:10006000570200085702000857020008570200080C
:10007000570200085702000857020008C906000886
:1000800057020008570200085702000857020008EC
:1000900057020008570200085702000857020008DC
:1000A00057020008570200085702000857020008CC
:1000B00057020008570200085702000857020008BC
:1000C00057020008570200085702000857020008AC
:1000D000570200085702000857020008570200089C
:1000E000570200085702000857020008570200088C
:1000F000570200085702000857020008570200087C
:10010000570200085702000857020008570200086B
:100110005702000857020008C121000857020008D2
:10012000570200085702000857020008570200084B
:10013000570200085702000857020008570200083B
:10014000570200085702000857020008570200082B
:10015000570200085702000857020008570200081B
:10016000570200085702000857020008570200080B
:1001700057020008570200085702000857020008FB
:10018000570200085702000800F002F800F047F894
:100190000AA090E8000C82448344AAF10107DA45E2
:1001A00001D100F03CF8AFF2090EBAE80F0013F0ED
:1001B000010F18BFFB1A43F001031847986F0000A6
:1001C000B86F0000103A24BF78C878C1FAD8520737
:1001D00024BF30C830C144BF04680C6070470000C1
:1001E0000023002400250026103A28BF78C1FBD840
:1001F000520728BF30C148BF0B607047642900F028
:100200008780752900F08480782900F0BD80002067
:1002100070471FB503F0D0F91FBD10B510BD00F039
:100220001FFA1146FFF7F5FF02F05CFE00F03DFA01
:1002300003B4FFF7F2FF03BC02F0F7FD0948804763
:1002400009480047FEE7FEE7FEE7FEE7FEE7FEE7B8
:10025000FEE7FEE7FEE7FEE704480549054A064BD0
:1002600070470000391F000889010008C001002004
:10027000C0070020C0030020C0030020704700001A
:100280000FB4044910B503AA029800F0D3F910BCCA
:100290005DF814FB380000200FB41CB5074B06AA0C
:1002A0007B4469460090059800F0ABF90020694650
:1002B00000F0BAF91CBC5DF814FB000085030000D7
:1002C00070B5044685690068C10601D5302600E096
:1002D0002026C00707D070BDD4E9012130469047E1
:1002E000206A401C20626D1EF6D570BD70B50446B4
:1002F00085690078C00707D170BDD4E901212020AD
:100300009047206A401C20626D1EF6D570BD00002B
:100310002DE9F0410646002410687529314616A5DE
:1003200010D0AFF30080002802DA404213A507E0A6
:1003300031688A0701D512A502E0490704D511A545
:10034000012401E0AFF3008000210A2206F1240716
:1003500009E0B0FBF2FCB0FBF2F302FB1C00303012
:1003600078541846491C0028F3D123462A463046C3
:10037000BDE8F04100F0E6B8000000002D000000EC
:100380002B0000002000000070B504460D462146F9
:100390001068AFF300802188090502D50F4A7A441E
:1003A00002E00E4A7A440E32002104F1240305E0F3
:1003B00000F00F060009965D5E54491C0028F7D135
:1003C00020780023000704D5702D02D009B1022344
:1003D00011322046BDE8704000F0B4B8896D0000CD
:1003E0002DE9F0474FF0000A89460446C0F820A0E6
:1003F0002046E1688847002876D0252806D0D4E931
:1004000001219047206A401C2062F1E7E168204604
:1004100000258847C4F81CA006460027C4F818A089
:100420002A2E09D0304602F0F9FC38B304EB8708D5
:10043000303EC8F8186019E059F8041B204604EB58
:1004400087029161E1688847012F064618D1E0696B
:10045000002820DA25F020051DE0D8F8180000EB70
:10046000800006EB40003038C8F818002046E168EC
:100470008847064602F0D2FC0028EED1012F0AD0B0
:100480002E2E08D12046E16888477F1C0646022FA1
:1004900045F02005C4DBA069002803DA404245F09E
:1004A0000105A061E80701D025F01005B6B1A6F15D
:1004B0004100192802D8203645F400654A463146E5
:1004C000204625604D46FFF799FE58B1012806D019
:1004D000ED1D25F0070000F1080989E704E005F1AA
:1004E000040985E730468AE7206ABDE8F0874FF0C7
:1004F000000200B5134694469646203922BFA0E874
:100500000C50A0E80C50B1F12001BFF4F7AF09077F
:1005100028BFA0E80C5048BF0CC05DF804EB890070
:1005200028BF40F8042B08BF704748BF20F8022BB3
:1005300011F0804F18BF00F8012B704770477047CB
:10054000704770472DE9F0470D469946924604469C
:1005500000F124080168880604D5E06921F0100143
:10056000216000E00120A84201DD471B00E00027D8
:10057000A1697A1902EB0900081AA0612078C00667
:1005800002D42046FFF79CFE002608E0D4E90121B2
:100590001AF806009047206A401C761C20624E45DF
:1005A000F4DB2078C0060AD52046FFF789FE06E076
:1005B000D4E9012130209047206A401C2062381E77
:1005C000A7F10107F4DC07E0D4E9012118F80500E0
:1005D0009047206A401C2062281EA5F10105F3DC2B
:1005E0002046FFF783FE2078000602D50220BDE8F2
:1005F000F0870120FBE7000001694A1C02610878CE
:10060000704700B58FB0CDE9013100210591054952
:100610007944CDE9031011466846FFF7E1FE0FB0BB
:1006200000BD0000E5FFFFFF0A6802F8010B0A6049
:1006300070470000074B70B50D467B44FFF7E1FFA4
:100640000446284600F008F810B14FF0FF3070BDA6
:10065000204670BD77280000007B00F080007047C6
:10066000754600F02BF8AE4605006946534620F06B
:100670000700854618B020B5FFF7EEFDBDE8204025
:100680004FF000064FF000074FF000084FF0000B4E
:1006900021F00701AC46ACE8C009ACE8C009ACE801
:1006A000C009ACE8C0098D46704710B50446AFF3E9
:1006B00000802046BDE81040FFF7BABD00487047F3
:1006C0005C01002000BFFEE70548406800F0200004
:1006D00028B120200249C8600020024908707047F4
:1006E0000060024071000020704701B502E00098F0
:1006F000401E009000980028F9D108BD0021234930
:100700008279002A3AD00A46126803689A430B4657
:100710001A600A1D126803689A430B1D1A60027959
:1007200011440A6803681A430A60184A08321268BA
:1007300003689A43154B08331A601A1D1268036840
:100740009A43124B0C331A604279102A0ED11A1FA9
:10075000126803681A430D4B08331A601A1D126899
:1007600003681A43094B0C331A600DE007494279BC
:1007700011440A6803681A430A6005E002791144CB
:100780000A6803689A430A6070470000003C014011
:1007900010B50346002007220BE0C000012494405E
:1007A0001C4014B140F0060001E040F00400541E6B
:1007B00062B2002AF1DA020C0A70020A4A708870EA
:1007C00010BD000000B589B00121084601F0A4FA6F
:1007D0000121022001F0C0FA02220621214800F086
:1007E00039F9022207211F4800F034F9C020079090
:1007F00002208DF8200003208DF8210000208DF8C4
:10080000220001208DF8230007A9164800F0DAF82D
:100810000020ADF810004FF6FF7005900020ADF8F5
:100820001800ADF8120004A90F4801F01DFF0023C5
:100830001A4603210C4801F01FFD01A801F088FDB4
:100840000A20ADF80C0001A9074801F04AFD00217B
:10085000054801F0DAFE0121034801F0F2FC09B07D
:1008600000BD0000000002400004004051B18200C1
:10087000A2F1C042126842F001038200A2F1C0421C
:10088000136009E08200A2F1C0421268034B1A40D3
:100890008300A3F1C0431A6070470000FEFF0F0001
:1008A00030B50021002200230468A400A4F1C04454
:1008B0002168424C2140D0E901452C43C5682C43B6
:1008C00005692C4345692C4385692C43C5692C4334
:1008D000056A2C43456A2C43856A2C43C56A2C4320
:1008E000056B2C4321430468A400A4F1C04421609B
:1008F0008468082C0BD10468A400A4F1C0442468C7
:1009000044F040050468A400A4F1C04425600468D4
:10091000641CA400A4F1C044226802F04042446B6D
:100920002468456B6D6844EA0514456BAD6844EA7C
:100930000524456BAD8944EA0544456B2D8A44EA9C
:100940000554456B2D7D44EA0564456BAD692C4328
:1009500022430468641CA400A4F1C0442260C46A59
:10096000B4F5804F20D10468A400A4F1C044D4F8A9
:100970000431134C2340846B2468856B6D6844EA12
:100980000514856BAD6844EA0524856BAD8944EA9E
:100990000544856BAD692C4323430468A400A4F18E
:1009A000C044C4F8043107E06FF070450468A40047
:1009B000A4F1C044C4F8045130BD00008000F7FF2A
:1009C0000000F0CFF0B50A4600210023002400BF4C
:1009D0003DE0012505FA01F3156805EA03049C4290
:1009E00034D105684F000326BE40B5430560157934
:1009F0004E00B5400668354305601579012D02D0DB
:100A00001579022D16D185684F000326BE40B543E7
:100A1000856055794E00B5408668354385604568E8
:100A200001268E40B5434560456896798E40B6B242
:100A300035434560C5684F000326BE40B543C560D9
:100A4000D5794E00B540C6683543C560491C1029AC
:100A5000BFD3F0BDF0B5002300244D07ED0E02FA20
:100A600005F3CE1000F1200555F826504E07F70E7D
:100A70000F26BE40B543CF1000F1200646F82750A0
:100A8000CE1000F1200555F8265045EA0304CE109B
:100A900000F1200545F82640F0BD0246002013690C
:100AA0000B400BB1012000E00020704741837047EC
:100AB0000183704700BFFEE710B504462CB14FF428
:100AC00000710548FFF7F2FF04E04FF4007102489F
:100AD000FFF7EEFF10BD0000001402402DE9F041C9
:100AE00006460F4614461D462B46224639463046DA
:100AF00000F0DCFB04FB05F00249098800F02CFA49
:100B0000BDE8F0813600002001B502E00098401EEB
:100B1000009000980028F9D108BD00002DE9F05F91
:100B2000804689461646A6F120001FFA80FA1E4923
:100B3000096889881C4A1268D28801FB02F0C11733
:100B400000EB5171C1F3C7071748006800680AFB42
:100B5000070B15480068C388134800688288494617
:100B6000404600F0A3FB2C2000F07AFE002416E0A3
:100B7000002510E01BF8040080212941084020B125
:100B80000A48008800F070FE03E00948008800F081
:100B90006BFE681CC5B2082DECDB601CC4B2BC4205
:100BA000E6DBBDE8F09F00003000002034000020AC
:100BB0003600002070B504460D46002624E030467D
:100BC000134909688988084412490988884205DD63
:100BD00000260F480068C088204484B220460C4993
:100BE0000968C98808440C490988884201DD002643
:100BF00000242A7821463046FFF790FF6D1C0448F8
:100C000000688088304486B228780028D7D170BD2B
:100C100030000020280000202A00002070B5054682
:100C20000E46144624E0284613490968898808447A
:100C300012490988884205DD00250F480068C088F0
:100C4000304486B230460C490968C98808440C49CA
:100C50000988884201DD0025002622783146284691
:100C6000FFF75CFF641C044800688088284485B254
:100C700020780028D7D170BD300000202800002047
:100C80002A0000202DE9F05F05460E4691469B465E
:100C900000240FFA89F70320A0EB49000FFA80FA2D
:100CA00087E0BBF1000F40D0A0463BE006EB080216
:100CB00091B22A1990B200F0B7FD06EB080291B28A
:100CC0002A1B90B200F0B0FD321991B2A5EB0802D8
:100CD00090B200F0A9FD321B91B2A5EB080290B2D0
:100CE00000F0A2FDA6EB080291B22A1B90B200F020
:100CF0009BFDA6EB080291B22A1990B200F094FD78
:100D0000321B91B205EB080290B200F08DFD321952
:100D100091B205EB080290B200F086FD08F10100E7
:100D20000FFA80F8B845C1DD2FE0F21991B22A1907
:100D300090B200F079FDF21991B22A1B90B200F046
:100D400073FD321991B2EA1B90B200F06DFD321BB7
:100D500091B2EA1B90B200F067FDF21B91B22A1B20
:100D600090B200F061FDF21B91B22A1990B200F02E
:100D70005BFD321B91B2EA1990B200F055FD3219B9
:100D800091B2EA1990B200F04FFD601C04B2BAF1C2
:100D9000000F05DAA000801D50440FFA80FA07E02A
:100DA000E01B80000A3050440FFA80FA781E07B228
:100DB00000BFBC427FF775AFBDE8F09F2DE9FF4F44
:100DC00083B081464FF0000AD3460598A0EB090591
:100DD00004990698461ACDF8049004980090002DC6
:100DE00001DD012705E00DB9002702E04FF0FF37D4
:100DF0006D42002E02DD4FF0010806E016B94FF0FB
:100E0000000802E04FF0FF387642B54201DD2C4683
:100E100000E034460020029019E0DDE9001000F007
:100E200003FDAA44B344A24505DDAAEB040A0198D8
:100E3000384480B20190A34505DDABEB040B00986C
:100E4000404480B200900298401C80B20290611C25
:100E500002988842E1DD07B0BDE8F08F2DE9F0414E
:100E600004460D4616461F46DDF81880B8F1000FFF
:100E70000CD03B4632462946204600F017FA06FBC6
:100E800007F01749098800F067F827E0A019401E0D
:100E900082B22B4629462046FFF790FFE819401EF4
:100EA00083B2A019401E82B2E819401E81B22046CA
:100EB000FFF784FFE819401E83B2224629462046E8
:100EC000FFF77CFFE919491E8BB2A119491E8AB2AE
:100ED000A119491E88B22946FFF770FFBDE8F081CD
:100EE0003400002000B597B03C2108A8FFF7FFFAB6
:100EF0001C2101A8FFF7FBFA0121084600F01CFFA6
:100F0000042001900F2003904FF0805007900020A4
:100F1000029004900590069004200890002009900B
:100F200008200A9010200B9000200C900E900F903B
:100F300010904FF480501190002012901390149054
:100F400001A81590169008A8FFF7AAFC012104201B
:100F5000FFF78CFC17B000BD70B504460D460026A7
:100F60002C2000F07DFC00BF03E0284600F07CFC54
:100F7000761CA642F9D370BD1CB50121782000F083
:100F8000CBFE02208DF804008DF805004003009090
:100F900069468048FFF716FD0C220E217D48FFF7B9
:100FA00059FD4FF40040009069467A48FFF70AFD6A
:100FB0000C220F217748FFF74DFD01200090694674
:100FC0007448FFF7FFFC0C2200217248FFF742FD36
:100FD0000220009069466F48FFF7F4FC0C220121C3
:100FE0006C48FFF737FD8020009069466A48FFF79C
:100FF000E9FC0C2207216848FFF72CFD4FF48070B4
:10100000009069466448FFF7DDFC0C220821624825
:10101000FFF720FD4FF40070009069465E48FFF72F
:10102000D1FC0C2209215C48FFF714FD4FF48060CD
:10103000009069465848FFF7C5FC0C220A21564823
:10104000FFF708FD4FF40060009069465248FFF733
:10105000B9FC0C220B215048FFF7FCFC4FF48050E8
:10106000009069464C48FFF7ADFC0C2211464A48F7
:10107000FFF7F0FC4FF40050009069464648FFF738
:10108000A1FC0C220D214448FFF7E4FC4FF4804002
:10109000009069464048FFF795FC0C220E213E481F
:1010A000FFF7D8FC4FF40040009069463A48FFF73C
:1010B00089FC0C220F213848FFF7CCFC4FF48070DC
:1010C000009069463348FFF77DFC0C220821314827
:1010D000FFF7C0FC4FF40070009069462D48FFF701
:1010E00071FC0C2209212B48FFF7B4FC4FF48060FF
:1010F000009069462748FFF765FC0C220A21254825
:10110000FFF7A8FC1020009069462248FFF75AFC20
:101110000C2204211F48FFF79DFC20200090694607
:101120001C48FFF74FFC0C2205211A48FFF792FCE0
:101130004FF48060009069461848FFF743FC0C228A
:101140000A211648FFF786FC0120009069461448E2
:10115000FFF738FC0C2200211148FFF77BFC01202F
:101160008DF8040000208DF8060001208DF807009E
:1011700002208DF805008002009069460848FFF7BC
:1011800021FC4FF40070009069460548FFF71AFCF7
:101190001CBD0000000C024000100240001802407C
:1011A0000014024010B50446072C00DD10BD314884
:1011B0000470204604EBD0714910A4EB410139B909
:1011C000F0202D4908804FF4A0702C49088006E0DB
:1011D0004FF4A07028490880F02028490880362064
:1011E00000F03EFB2648008849F24131884205D193
:1011F000082141EA441000F037FB0AE0204800884B
:1012000048F25251884204D1002141EA441000F0D2
:101210002BFB2A2000F024FB002000F025FB0020FF
:1012200000F022FB14490988491EC1F3072000F091
:101230001BFB11490978491EC8B200F015FB2B2091
:1012400000F00EFB002000F00FFB002000F00CFB74
:101250000A490988491EC1F3072000F005FB074928
:101260000978491EC8B200F0FFFA2C2000F0F8FA05
:1012700000BF9BE72C000020280000202A0000204F
:101280002E00002010B5FFF777FEFFF72BFE0120A0
:10129000FFF712FC00F0A8FA00F038F802480078D6
:1012A000FFF780FF10BD00002C0000202DE9F04169
:1012B00004460D4616461F462A2000F0D1FA201299
:1012C00000F0D2FAE0B200F0CFFAA119491EC1F342
:1012D0000F2000F0C9FAA119491EC8B200F0C4FAE3
:1012E0002B2000F0BDFA281200F0BEFAE8B200F0A0
:1012F000BBFAE919491EC1F30F2000F0B5FAE9194C
:10130000491EC8B200F0B0FABDE8F08110B500F097
:1013100025FAFE4908800846008849F24131884292
:101320007ED1CF2000F09CFA002000F09DFA8120B1
:1013300000F09AFA302000F097FAED2000F090FAD1
:10134000642000F091FA032000F08EFA122000F0E1
:101350008BFA812000F088FAE82000F081FA8520DD
:1013600000F082FA102000F07FFA782000F07CFA7A
:10137000CB2000F075FA392000F076FA2C2000F02E
:1013800073FA002000F070FA342000F06DFA0220A9
:1013900000F06AFAF72000F063FA202000F064FA07
:1013A000EA2000F05DFA002000F05EFA002000F074
:1013B0005BFAB12000F054FA002000F055FA1B202F
:1013C00000F052FAB62000F04BFA0A2000F04CFA76
:1013D000A22000F049FAC02000F042FA352000F0C7
:1013E00043FAC12000F03CFA112000F03DFAC5207C
:1013F00000F036FA452000F037FA452000F034FAC4
:10140000C72000F02DFAA22000F02EFAF22000F002
:1014100027FA002000F028FA262000F021FA00E048
:1014200096E0012000F020FAE02000F019FA0F20E9
:1014300000F01AFA262000F017FA242000F014FA1F
:101440000B2000F011FA0E2000F00EFA092000F037
:101450000BFA542000F008FAA82000F005FA462004
:1014600000F002FA0C2000F0FFF9172000F0FCF960
:10147000092000F0F9F90F2000F0F6F9072000F03C
:10148000F3F9002000F0F0F9E12000F0E9F9002084
:1014900000F0EAF9192000F0E7F91B2000F0E4F968
:1014A000042000F0E1F9102000F0DEF9072000F040
:1014B000DBF92A2000F0D8F9472000F0D5F93920CF
:1014C00000F0D2F9032000F0CFF9062000F0CCF9AB
:1014D000062000F0C9F9302000F0C6F9382000F0ED
:1014E000C3F90F2000F0C0F9362000F0B9F9C82088
:1014F00000F0BAF92A2000F0B3F9002000F0B4F9A6
:10150000002000F0B1F9002000F0AEF9EF2000F06B
:10151000ABF92B2000F0A4F9002000F0A5F9002081
:1015200000F0A2F9012000F09FF93F2000F09CF9A3
:101530003A2000F095F9552000F096F9112000F0BE
:101540008FF97348FFF7E0FA292000F089F901E1EB
:101550006E48008848F252518842F8D1CF2000F0FE
:101560007FF9002000F080F9C12000F07DF93020E3
:1015700000F07AF9ED2000F073F9642000F074F9BE
:10158000032000F071F9122000F06EF9812000F0C4
:101590006BF9E82000F064F9852000F065F910206F
:1015A00000F062F9782000F05FF9CB2000F058F9E4
:1015B000392000F059F92C2000F056F9002000F0F5
:1015C00053F9342000F050F9022000F04DF9F720D3
:1015D00000F046F9202000F047F9EA2000F040F939
:1015E000002000F041F9002000F03EF9C02000F09A
:1015F00037F9212000F038F9C12000F031F911202D
:1016000000F032F9C52000F02BF92D2000F02CF964
:10161000332000F029F9362000F022F9002000F0F4
:1016200023F93A2000F01CF9552000F01DF9B120F3
:1016300000F016F9002000F017F9172000F014F957
:10164000B62000F00DF90A2000F00EF9A22000F0FB
:101650000BF9F62000F004F9012000F005F9302024
:1016600000F002F9F22000F0FBF8002000F0FCF896
:10167000262000F0F5F8012000F0F6F8E02000F058
:10168000EFF8D02000F0F0F8002000F0EDF8022094
:1016900000F0EAF8072000F0E7F80B2000F0E4F88B
:1016A0001A2000F0E1F8312000F0DEF8542000F0BC
:1016B000DBF8402000F0D8F8292000F0D5F81220FF
:1016C00000F0D2F8122000F0CFF8122000F0CCF891
:1016D000172000F0C9F8E12000F0C2F8D02000F097
:1016E000C3F8002000F0C0F8022000F0BDF8072089
:1016F00000F0BAF8052000F0B7F8252000F0B4F8A3
:101700002D2000F0B1F8442004E000002E0000205D
:10171000FCBF020000F0A8F8452000F0A5F81C204E
:1017200000F0A2F8182000F09FF8162000F09CF8B6
:101730001C2000F099F81D2000F096F8112000F010
:101740008FF80548FFF7E0F9292000F089F82C20F0
:1017500000F086F810BD0000FCBF020010B50024A8
:10176000042000F07DF800BF4FF0D040408800BF5B
:101770004FF0D040408800F033F804464FF6FF7039
:1017800000EA042400F02CF8044348F2525084424A
:1017900001D1204610BDD32000F062F800BF4FF009
:1017A000D040408800BF4FF0D040408800F018F88B
:1017B00004464FF6FF7000EA042400F011F80443D9
:1017C000214604A0FEF75CFD14B149F24130E1E787
:1017D0000020DFE76964203D202534780D0A0000F1
:1017E0004FF0D0404088704710B54FF40061084872
:1017F000FFF75CF940F6FF20FFF786F94FF4006130
:101800000348FFF755F940F6FF20FFF77DF910BDBB
:101810000014024070B504460D4601231A462946BD
:101820002046FFF743FD70BD70B505460C460948DC
:10183000008885420CDA08480088844208DA21468C
:101840002846FFF7E7FF054801880120FFF784FBE2
:1018500070BD0000280000202A0000203400002075
:101860004FF0D041088070474FF0D041488070471A
:1018700070B5044600F00CF8C5882B460348028872
:1018800021460020FFF72AF970BD00002800002043
:10189000014800687047000030000020024A1080B4
:1018A000024A1180704700003400002036000020FA
:1018B000014908607047000030000020014908809D
:1018C000704700003400002010B59AB0A648007898
:1018D000401CA5490870A548FFF7EAFF00214FF416
:1018E0007840FFF7DBFFA2480388A2480288002166
:1018F0000846FFF7F3F8FFF7CBFF00249EA1204630
:10190000FFF758F9FFF7C4FFC488A1A12046FFF7ED
:1019100051F9A648008849F2413188420ED1A348C6
:101920000188A3A0FEF7ACFCFFF7B2FFC08840041B
:10193000040CA3A12046FFF73DF913E09B48008863
:1019400048F2525188420DD19848018898A0FEF77C
:1019500097FCFFF79DFFC0884004040C9DA1204622
:10196000FFF728F9FFF794FFC08800EB400084B22E
:101970009DA12046FFF71EF9A248FFF799FF4FF4FB
:10198000FC60FFF79BFF784802789FA101A8FEF753
:1019900083FCFFF77DFFC0888004040C2046FFF71E
:1019A00067FFFFF775FFC0888004040C01A920467B
:1019B000FFF700F99748FFF77BFFFFF769FFC08843
:1019C0008004040C2046FFF753FF1F20FFF776FF2B
:1019D000FFF75EFFC0888004040C8FA12046FFF74C
:1019E000E9F84FF47840FFF769FFE623D222AA21F5
:1019F0003220FFF7E3F9F023D222C8213220FFF78B
:101A0000DDF94FF4FC60FFF759FFE623C822AA2155
:101A10006420FFF7D3F9F023DC22C8210846FFF742
:101A2000CDF91F20FFF74AFFE6236E22AA211046B8
:101A3000FFF7C4F9F023DC22C8218220FFF7BEF9AA
:101A40006FF07F40FEF751FE49480088803883B22E
:101A50004848028880210020FFF740F8FFF718FF70
:101A6000C0888004040C2046FFF702FF1F20FFF708
:101A700025FFFFF70DFFC0888004040C69A12046F4
:101A8000FFF798F84FF47840FFF718FF01201E2366
:101A90006422C82100903220FFF7E0F94FF4FC6087
:101AA000FFF70CFF002028231422C8210090A0205B
:101AB000FFF7D4F91F20FFF701FF01201423322282
:101AC000C8210090AA20FFF7C9F96FF07F40FEF708
:101AD0000CFE27480088803883B22648028880217F
:101AE0000020FEF7FBFFFFF7D3FEC0888004040C44
:101AF0002046FFF7BDFE1F20FFF7E0FEFFF7C8FE00
:101B0000C0888004040C4AA12046FFF753F84FF424
:101B10007840FFF7D3FE00231422C8216420FFF78A
:101B2000B1F84FF4FC60FFF7C9FE01230A22C82177
:101B30006420FFF7A7F81F20FFF7C0FE0023142240
:101B4000C8218C20FFF79EF86FF07F40FEF7CDFD97
:101B500007480088803883B2064802888021002028
:101B6000FEF7BCFF1AB010BD0C00002010000020D2
:101B70002A00002028000020424820332E3220690D
:101B80006E6368204C434420706172613A0000002B
:101B9000496D616765207265736F6C7574696F6EEE
:101BA0003A32343078333230207078002E00002002
:101BB0004C43442049443A20307825580D0A00000F
:101BC000494C4939333431204C434420647269769E
:101BD0006572000053543737383956204C4344203F
:101BE0006472697665720000585054323034362081
:101BF000546F756368205061642064726976657201
:101C00000000000018000020436F756E74203A2019
:101C1000256420002000002044726177206C696EEA
:101C2000653A00004472617720526563743A00009F
:101C300044726177204369723A00000000BFFEE7FA
:101C40001CB50121022000F067F806200090012059
:101C50008DF8040000208DF8060003208DF80500A3
:101C600001208DF8070069460548FEF7ABFE02210A
:101C70000348FEF71DFF04210148FEF717FF1CBDB6
:101C8000000402407047000070B5002100230F22BD
:101C9000C4781CB3174C246804F4E064C4F5E06411
:101CA000C4F30721C1F10404E3B20A4144789C4023
:101CB000E1B28478144021430C07210E0E4C0578C4
:101CC0006155047804F01F050124AC4005786D11BE
:101CD000AD0005F1E025C5F8004109E0047804F005
:101CE0001F050124AC40054D0678761145F82640C5
:101CF00070BD00000CED00E000E400E080E100E0D9
:101D000002490143024A1160704700000000FA05D1
:101D10000CED00E07047000029B1064A126802434A
:101D2000044B1A6004E0034A12688243014B1A60B4
:101D3000704700003038024029B1064A1268024359
:101D4000044B1A6004E0034A12688243014B1A6094
:101D5000704700003838024029B1064A1268024331
:101D6000044B1A6004E0034A12688243014B1A6074
:101D7000704700004038024029B1064A1268024309
:101D8000044B1A6004E0034A12688243014B1A6054
:101D9000704700004438024070B5154C00251BE028
:101DA00005EB4501134A505C2146FEF7F1FCE41CAB
:101DB00005EB45010F4A114448782146FEF7E8FC3F
:101DC000E41C05EB45010B4A114488782146FEF7D7
:101DD000DFFCE41C681C85B2102DE1DB002004E070
:101DE000002104F8011B411C88B22828F8D370BDDB
:101DF000740000202C0100207047000030B5002244
:101E00008B071C0F0F2303FA04F20B4B8C1053F8B3
:101E100024309343084C8D1044F8253023468C1011
:101E200053F824308C07240F00FA04F42343024CA7
:101E30008D1044F8253030BD083801400CB5002025
:101E4000019000903448006840F4803032490860C6
:101E500000BF3148006800F4003000900198401C39
:101E60000190009818B90198B0F5A04FF1D12A4817
:101E7000006800F4003010B10120009001E0002063
:101E800000900098012846D123484030006840F077
:101E900080502149403108602048006840F44040AB
:101EA0001E4908601C48083000681B49083108605A
:101EB0000846006840F4004008600846006840F4A6
:101EC000A05008601648091F0860081F006840F00D
:101ED0008070091F086000BF0F48006800F00070A4
:101EE0000028F9D040F205700E4908600A48083011
:101EF000006820F0030008490831086008460068BF
:101F000040F00200086000BF03480830006800F09D
:101F10000C000828F8D10CBD0038024000700040C9
:101F200019544007003C024002480068401C014927
:101F3000086070470400002010B51548006840F4A0
:101F40007000134908601348006840F0010011490F
:101F5000086000200F49083108600E4800680E49EB
:101F600008400C4908600D48091D0860081F0068FA
:101F700020F48020091F0860002006490C31086009
:101F8000FFF75CFF4FF0006001498039086010BD29
:101F900088ED00E000380240FFFFF6FE103000241C
:101FA000F0B50C46154600210022068C4FF6FE7750
:101FB0003E400684018B028C4FF60C7631407E1C2D
:101FC00006EA03162E4331434FF6F576324044F0CD
:101FD0000106324301830284F0BDF0B50C4615467C
:101FE000002100220026078C4FF6EF7C07EA0C0741
:101FF0000784018B028C4FF6FF7707EA041640F640
:10200000FF4739404FF6FF7707EA033739434FF66A
:10201000FF7707EA052739434FF65F773A4046F0E6
:1020200010073A4301830284F0BDF0B50C46154613
:10203000002100220026078C4FF6FF6C07EA0C07F0
:102040000784818B028C4FF6FF7707EA04264FF650
:102050000C7739404FF6FF7707EA03172F433943D0
:102060004FF2FF573A4046F480773A438183028427
:10207000F0BDF0B50C461546002100220026078C65
:102080004EF6FF7C07EA0C070784818B028C4FF623
:10209000FF7707EA043640F6FF4739404FF6FF77EF
:1020A00007EA052739434FF6FF7707EA0337394335
:1020B00045F6FF773A4046F480573A4381830284DD
:1020C000F0BD000030B58BB004460D460121084636
:1020D000FFF752FE01210846FFF71EFE01220821EC
:1020E0003548FEF7B7FC012209213348FEF7B2FC60
:1020F00001220A213048FEF7ADFC01220B212E48B7
:10210000FEF7A8FC4FF47060099002208DF82800BB
:1021100003208DF8290000208DF82A0001208DF879
:102120002B0009A92448FEF74DFC0794A8B2ADF88E
:1021300018000120ADF820000020ADF81A0006A913
:102140001E4800F091FA6020ADF804000120ADF8BF
:1021500006000020ADF810006008039001A91748A0
:1021600000F008F901A9154800F04CF901A913483D
:1021700000F0A8F901A9114800F0FEF901210F486B
:1021800000F06BF808210D4800F032F908210B48E7
:1021900000F08AF90821094800F0E4F9082107480D
:1021A00000F026FA0121054800F03CF8012103481F
:1021B00000F047F80BB030BD0000024000000140C5
:1021C00010B52DED028B0121114800F079F8D8B13E
:1021D00001210F4800F032F80E4800F06EF800B20E
:1021E00008EE100A00210B4800F00FFAB8EEC80AFA
:1021F000DFED090A20EE200ADFED080A80EE201A42
:10220000074880ED001A00BFBDEC028B10BD000036
:1022100000100040000400400080BB4500008244E4
:102220000800002021B1028842F08002028004E010
:1022300002884FF67F731A4002807047CA430282B9
:10224000704721B1028842F00102028004E0028856
:102250004FF6FE731A400280704731B1B0F8442047
:1022600042F40042A0F8442005E0B0F84420C2F354
:102270000E02A0F844207047F0B50C4615461E46E5
:102280000021002200230189028B038C4FF6F8778E
:10229000394021434FF6FC473A4040F201173A4398
:1022A0004FF6DD773B404FF6FF7707EA06172F43DF
:1022B0003B43018102830384F0BD0146486A7047B5
:1022C00030B50246002000230024158A05EA0103E8
:1022D000958905EA010413B10CB1012000E000204A
:1022E00030BD70B505460C46208850B92389A288B8
:1022F00061882846FFF754FEE188284600F087F9F8
:1023000025E0208804280AD12389A28861882846EC
:10231000FFF763FEE188284600F082F917E0208885
:1023200008280AD12389A28861882846FFF77DFE04
:10233000E188284600F081F909E02389A2886188B4
:102340002846FFF796FEE188284600F07FF970BD29
:10235000002101804180012181800021C180018113
:1023600070471AB183890B43838102E083898B43D1
:102370008381704770B5002400220023058C4FF63E
:10238000FE7635400584028C8388048B4FF68F756A
:102390002C40B51E2C400D882C43751E2A408D897B
:1023A0002A434D882A43104DA84202D00F4DA8421F
:1023B00013D14FF6F7752A40CD892A434FF6FB75A6
:1023C0002A408D882A434FF6FF652B404FF6FF5574
:1023D0002B400D8A2B434D8A2B43838004838D68C9
:1023E0004563028470BD000000000140000401400C
:1023F0000A460021018B4FF6F77319401143018300
:102400007047000070B5002400220023058C4FF6B1
:10241000EF7635400584028C8388048B48F6FF757F
:102420002C404FF6FF452C400D884FF6FF7606EA0C
:1024300005252C434FF6DF752A408D8906EA0515E0
:102440002A434D8806EA05152A43154DA84202D0B5
:10245000144DA8421DD14FF67F752A40CD894FF605
:10246000FF7606EA05152A434FF6BF752A408D8888
:1024700006EA05152A434FF6FF352B404FF2FF754C
:102480002B400D8A06EA85052B434D8A06EA850511
:102490002B43838004838D688563028470BD0000B4
:1024A00000000140000401400A460021018B4FF268
:1024B000FF7319404FF6FF7303EA022319430183A8
:1024C0007047000070B5002400220023058C4FF6F1
:1024D000FF6635400584028C8388848B4FF68F75A8
:1024E0002C404FF6FC752C400D882C434FF6FF55C1
:1024F0002A408D894FF6FF7606EA05252A434D8846
:1025000006EA05252A43154DA84202D0144DA842DB
:102510001DD14FF2FF752A40CD894FF6FF7606EAAE
:1025200005252A434FF6FF352A408D8806EA052502
:102530002A434EF6FF752B404DF6FF752B400D8A52
:1025400006EA05152B434D8A06EA05152B438380C1
:1025500084838D68C563028470BD00000000014063
:10256000000401400A460021818B4FF6F7731940A1
:10257000114381837047000070B5002200230024BE
:10258000058C4EF6FF7635400584038C8488828B5B
:1025900048F6FF752A404FF6FF452A400D884FF652
:1025A000FF7606EA05252A434DF6FF752B408D89F7
:1025B00006EA05352B434D8806EA05352B430A4DBF
:1025C000A84202D0094DA84208D14BF6FF752C4015
:1025D0000D8A4FF6FF7606EA85152C4384808283A8
:1025E0008D680564038470BD000001400004014053
:1025F0000A460021818B4FF2FF7319404FF6FF739B
:1026000003EA022319438183704741627047028BBA
:102610004FF6F3731A400283028B0A43028370471A
:10262000028B4FF2FF331A400283028B4FF6FF7387
:1026300003EA01231A4302837047828B4FF6F37338
:102640001A408283828B0A4382837047828B4FF2C7
:10265000FF331A408283828B4FF6FF7303EA012314
:102660001A4382837047000000220288184B984268
:102670000ED0184B98420BD0B0F1804F08D0164BBB
:10268000984205D0154B984202D0154B984204D180
:102690004FF68F731A404B881A43124B984207D05B
:1026A000114B984204D04FF6FF431A400B891A434E
:1026B00002804B68C3620B880385054B984202D0A9
:1026C000044B984201D18B7A0386012383827047A1
:1026D00000000140000401400004004000080040E8
:1026E000000C004000100040001400401FB5012104
:1026F0001020FFF731FB42F2CF00ADF80400632059
:10270000029001A90C48FFF7AFFF012211460A48C9
:10271000FFF727FE36208DF8000001208DF801001C
:102720008DF802008DF803006846FFF7ADFA01212D
:102730000148FFF786FD1FBD001000400246002043
:10274000B1F5007F00D100BF13880B400BB1012011
:1027500000E000207047C1F308028280704700BF8C
:10276000FEE708B500200090009800F0ABF800F0FC
:10277000CDF808BD18B54A48006840F00200484945
:1027800008600846006840F40010086044481030B3
:10279000006840F4804042491031086041480068B8
:1027A00020F040403F4908600846006840F0004083
:1027B00008603C480830006840F040403949083122
:1027C0000860081F006820F40040091F08603548B1
:1027D0000C30006820F0404032490C31086031482C
:1027E000406A20F070412F484162406A40F0A041A9
:1027F0002C48416200202C490880091D08804FF4B4
:102800005770091F0880081D008840F00200091D4C
:10281000088000202549086700BF2448006F00F0A9
:1028200001000028F9D14FF48A60204908671E484A
:102830000C3088671E48C867B82048670F200221FF
:10284000002807DA0A07140E1A4A00F00F031B1FAC
:10285000D45403E00A07130E174A135400BF0F2085
:10286000012181404209920002F1E022C2F80011E8
:1028700000BF00200DE00021009100EB40010F4A55
:102880001144BDF800200A809DF802208A70411C86
:1028900088B21028EFDB00200949087018BD00003D
:1028A000303802400004024000380040006002401E
:1028B0007400002018ED00E000E400E02C0100208E
:1028C0007100002001B500200BE000EB4001064A3A
:1028D0001144BDF800200A809DF802208A70411C36
:1028E00088B21028F1DB08BD2C01002003B51028A8
:1028F00009DA00EB4001044A1144BDF804200A80C3
:102900009DF806208A700CBD2C01002010B500BF78
:10291000114800780028FBD1FFF73EFA01200E494C
:1029200008703D200D49C8600846006F20F0010086
:10293000086700BF0948006F00F001000028F9D1C6
:1029400007480649C867B82048670846006F40F046
:102950000100086710BD0000710000200060024007
:102960007400002001B5002007E00C2100BF0A1E02
:10297000A1F10103D9B2FAD1401C00998842F4D3E5
:1029800008BD00001FB501212020FFF7C5F9012176
:102990008803FFF7F1F900F023F84FF4007002907C
:1029A00000208DF80C0001208DF80F0002A90B48C3
:1029B000FEF708F809210520FFF720FA4FF4007010
:1029C000009000208DF804000C208DF805000120F7
:1029D0008DF806006846FDF791FE1FBD0014024009
:1029E00008B54FF4C060FFF78BF917208DF8000091
:1029F00000208DF801008DF8020001208DF8030001
:102A00006846FFF741F908BD1CB501216020FFF7BA
:102A100083F98020009002208DF8050001208DF8B8
:102A2000040000208DF806008DF8070069461E4856
:102A3000FDF7C8FF4FF40060009002208DF80500FC
:102A400001208DF8040000208DF806008DF80700A5
:102A500069461648FDF7B6FF4020009002208DF829
:102A6000050000208DF8040001208DF8070069465C
:102A70000E48FDF7A7FF4FF48060009002208DF80C
:102A8000050001208DF8040000208DF806008DF867
:102A9000070069460548FDF795FF4FF4806103483C
:102AA000FEF706F81CBD00000018024000140240AA
:102AB00070B52DED0A8B82B005460C46012601A8A3
:102AC00000F08AF8002873D0BDF8060000F079FB0A
:102AD00041EC1C0B94ED021BB0EE410AF0EE610AD2
:102AE00053EC102B00F080FB41EC1A0BBDF80400F6
:102AF00000F067FB41EC1C0B94ED001BB0EE410AAB
:102B0000F0EE610A53EC102B00F06EFB41EC1B0B56
:102B100053EC1A2B00F080FA41EC190B94ED041BD6
:102B2000B0EE410AF0EE610A53EC102B00F074FA9B
:102B300041EC180B00F018FB2880BDF8060000F0EF
:102B400040FB41EC1C0B94ED081BB0EE410AF0EE8B
:102B5000610A53EC102B00F047FB41EC1B0BBDF856
:102B6000040000F02EFB41EC1C0B94ED061BB0EEB4
:102B7000410AF0EE610A53EC102B00F035FB41ECFA
:102B8000180B53EC1B2B00F047FA41EC190B94ED9A
:102B90000A1BB0EE410AF0EE610A53EC102B00F074
:102BA0003BFA41EC1A0B00F0DFFA688001E0FFE726
:102BB0000026304602B0BDEC0A8B70BD10B5FFF7A1
:102BC00023FFFFF7DFFE10BD10B50446204600F0DE
:102BD000EFF800F0C3F810BD2DE9F0478CB00646C1
:102BE000002528216846FDF782FC00BF0AA90BA832
:102BF00000F0A0F8BDF92C002DF81500BDF9281043
:102C000005A820F81510681CC5B24FF4007147489C
:102C1000FDF743FF08B90A2DE8DB4FF40071434884
:102C2000FDF73BFF10B10020414908700A2D7BD110
:102C3000BDF90070B846BDF91490CA4601240EE0F3
:102C40003DF91400B84202DA3DF9147005E03DF98F
:102C50001400404501DD3DF91480601CC4B20A2C0B
:102C6000EEDB012412E005A830F91400484503DA30
:102C700005A830F9149007E005A830F91400504574
:102C800002DD05A830F914A0601CC4B20A2CEADBEE
:102C9000BDF90000BDF902100844BDF90410084454
:102CA000BDF906100844BDF908100844BDF90A1022
:102CB0000844BDF90C100844BDF90E100844BDF9D4
:102CC00010100844BDF912100844C01BA0EB080006
:102CD000C0F3CF003080BDF91410BDF916000144D7
:102CE000BDF918000144BDF91A000144BDF91C00EA
:102CF0000144BDF91E000144BDF920000144BDF9A5
:102D000022000144BDF924000144BDF92600084415
:102D1000A0EB0900A0EB0A00C0F3CF0070800120F7
:102D20000CB0BDE8F087FFE70020F9E7001402408F
:102D3000700000202DE9F04104460D469020FFF779
:102D400043FF06B20120FFF70DFED020FFF73CFF46
:102D500007B226802F80BDE8F081000070B5002505
:102D60004FF400611048FDF7A1FE80210F48FDF7E8
:102D70009FFE002414E080210C48FDF797FE4021BF
:102D80000948FDF78AFE0646C4F10B0006FA00F07A
:102D9000284385B280210548FDF78AFE601CC4B235
:102DA0000C2CE8DB284670BD0014024000180240DD
:102DB00070B505464FF400611648FDF777FE802197
:102DC0001548FDF773FE002421E0C4F1070045FA21
:102DD00000F000F0010028B14FF400610D48FDF74C
:102DE00067FE04E04FF400610A48FDF75FFE05202E
:102DF000FFF7B8FD80210848FDF75AFE0520FFF7D0
:102E0000B1FD80210448FDF751FE601CC4B2082CBE
:102E1000DBDB70BD001402400018024030380A2885
:102E200001D2012070470020704700BF704770B585
:102E300004464FF4077094FBF0F0C6B24FF40770ED
:102E400094FBF0F100FB114085B205E04FF40770F0
:102E500000F00AF8701EC6B2002EF7D115B1284650
:102E600000F002F870BD00000146114A12884A4382
:102E70004FF0E0235A6100229A611A46126942F02B
:102E800001021A6100BF4FF0E022106900F0010258
:102E90001AB100F48032002AF5D04FF0E022126916
:102EA00022F001024FF0E0231A6100229A6170477C
:102EB0000200002070B504460E464FF40035E1B222
:102EC0000748FFF748FC02E06D1E05B905E08021C8
:102ED0000348FFF733FC0028F6D000BF204670BD42
:102EE000001001408AB0FEF7CDF9FFF743FCFFF771
:102EF00065FE4448006809900998FFF7E3FCFFF776
:102F000005FD532140F2E730FFF7DCF8FEF798FEAD
:102F1000FDF758FCFFF7EAFB0620FEF743F96FE0E8
:102F2000394908A8FFF7C4FD002847D0BDF8223072
:102F3000BDF8202035A16846FDF7AEF910237822B0
:102F400000210846FDF7CAFD6A4600210846FDF744
:102F500065FEBDF82210BDF82000FEF765FCBDF847
:102F60002210BDF82020002A03DDBDF82020521ECB
:102F700000E0002290B2FEF757FCBDF82210BDF829
:102F80002020521C90B2FEF74FFCBDF82220002AF0
:102F900003DDBDF82220521E00E0002291B2BDF8F0
:102FA0002000FEF741FCBDF82220521C91B2BDF872
:102FB0002000FEF739FC5020FFF739FFFEF784FCB4
:102FC0004FF4FA70FFF733FF002417E0FFF7C9FB57
:102FD0000C48001D0068089020460899FFF786FC01
:102FE000FFF794FC0020079002E00798401C079030
:102FF000084907988842F8D3601C84B2102CE5DB9E
:103000008EE70000C435000840000020543A2575C2
:103010002C25750020A1070010B591EA030F48BFC9
:1030200083F0004300F1E681841A71EB030C05D2B2
:10303000121943EB0C03001B61EB0C01DFF824E1D8
:103040004FEA1154A4EB135C1EEA430F18BF9EEA2B
:10305000445F73D023EA0E03DCF1200E21EA045111
:1030600043F4801332D322FA0CFE10EB0E0023FA45
:103070000CFE41EB0E01CCF1200E03FA0EFE10EB1C
:103080000E0051F10001B1F5801FCCF1200E32D2BB
:1030900001EB045112FA0EF2BDE8104058BF704720
:1030A000401C38BF5FEA420218BF7047002814BFB7
:1030B00020F0010041F100014FEA410313F5001F28
:1030C00038BF7047A1F1C04100F086B9012A43EB37
:1030D0000302ACF1200CDCF11F0E32BF4FF0000EEA
:1030E00023FA0CF310EB030041EB0451B4EB115F36
:1030F000D0D0A1EB045101F5801149085FEA3000FE
:1031000001EB04510ED350F1000038BF12FA0EFE4D
:1031100008D1BDE81040C9E7401C38BF5FEA420251
:10312000CAD1C3E7BDE810404FEA410313F5001FC1
:1031300038BF7047A1F1C04100F04EB99EEA445F2C
:1031400008D011EA5E0FBDE8104004BF01F0004155
:1031500000207047BDE8104070B500F0EFF800BFE8
:1031600064FBBE3E0000E0FF4FEA1153A3F580630D
:10317000D3F11E03A8BFD3F1200C08DB4FF00042AF
:1031800042EAC12252EA505232FA03F07047094231
:103190000BD4102BC4BF0020704703F5787CBCF122
:1031A000FF3F05D04FF0FF3070474FF000007047F1
:1031B00070B500F0C3F800BF49922480002070472A
:1031C000F0E7B0FA80F310FA03F10AD0C3F11D035F
:1031D00003F580634FEA41504FEA035202EBD121DD
:1031E00070474FF000007047DFF848C170B51CEA27
:1031F000111E1EBF1CEA13159EEA0C0F95EA0C0F58
:1032000000F06F8081EA030423EA4C134EEAD47E77
:1032100021EA4C1141F4801143F48013AE44A1FB28
:10322000024CA0FB0365AEF17F7E361955EB0C0511
:10323000A1FB034C4CF10003A0FB021C16EB0C0697
:10324000654153F10003094218BF46F0010613F42B
:10325000007F0BD14FEA03314FEA0530340341EAD6
:10326000155140EA16506FF003020AE04FEAC321FD
:103270004FEAC520F40241EA555140EA56506FF03A
:10328000020202EB2E4201EB025585EACE710AD012
:103290005FEA440C18BF24F0004450F1000041F1F3
:1032A000000120EAD47040F2FE7C624500D270BD7D
:1032B000A84214BF4FF080444FF04044002E08BF96
:1032C0000024BEF1806FA8BFA1F1C041BDE87040ED
:1032D00080F282804FF0000001F1C04101F0004116
:1032E00070479EEA0C0F0CEA131518BF95EA0C0FF5
:1032F00006D04FF0000081EA030E0EF0004170BDD1
:1033000000F01CF88900013E00F007B800F009B891
:103310004FEA430C5FEA5C5C08D081EA030100F0ED
:103320005BB84FEA410C5FEA5C5CF6D14FF00000FD
:10333000014970470000FF070000F87F0EF1020E00
:103340002EF0030E5EF8046B364205D4012A43EBDF
:10335000030515F5001F12D8012841EB010C1CF5DF
:10336000001F0CD80ED14FEAD17C15F5001F0CEBD5
:103370004C0C0CF1020C08BF4CEBD37C04E04FF07A
:10338000080C01E04FEAD37C0CEB4C0526FA05F65D
:1033900006F00706B6F1040C06D20EEB860CBDE86B
:1033A00070404CF0010C6047DFE80CF0090B0202A2
:1033B0004FF000414FF00000A1F5002170BD19460B
:1033C0001046012851EB010418BFD4F5001484BF46
:1033D000002001F0004170BD0808A0F500114FEA7F
:1033E0003101704710B591EA030F48BF83F00043E5
:1033F0003FF51AAE841A71EB030C07D212198CF048
:10340000004C43EB0C03001B61EB0C01DFF8A4E163
:103410004FEA1154A4EB135C1EEA430F18BF9EEA57
:10342000445F00F0B08023EA6E03524221EA045167
:10343000C3EB6E0338BF5B1EDCF1200E25D322FAEE
:103440000CFE10EB0E0043FA0CFE41EB0E01CCF12A
:10345000200E03FA0EFE10EB0E0051F10001CCF12C
:10346000200E29D412FA0EF201EB0451BDE81040EF
:1034700058BF7047401C1CBFB2F1004F7047002876
:103480000CBF491C20F00100704712EB020E43EB09
:10349000030218BF4FF0010E4EEA4202ACF1200CBD
:1034A000DCF11E0E54D943FA0CFE10EB0E0051F164
:1034B000FF31CCF11E0ED5D50EF1010E12FA0EFE23
:1034C000404141EB010101EB445C5FEA5C5C10D9D7
:1034D00010EBDE7001EB045138BFBEF1004FBDE8C8
:1034E000104018BF704700280CBF491C20F0010095
:1034F000704730D24FEAD42C11F5001124F4006447
:103500001BD0B1FA81F20B3AA41AA41ED2F1200307
:10351000914030FA03F31943904001EBCC71002C39
:1035200001EB0451BDE81040A8BF704701F1C04154
:103530004FF0000001F000417047B0FA80F310FA3C
:1035400003F100D110BDE41A173C4805C90AE4E7AD
:1035500001EB045110BD491001EB0451BDE81040CE
:103560004FEA300002E04FF0000170474A0008BF08
:103570000042F8D0B2F5001F28BF704701F00041AB
:103580004FF0000070479EEA445F07D011EA5E0FDB
:10359000BDE8104004BF002100207047BDE8104086
:1035A00070B5FFF7CBFE00BF40DFF63E83F0004171
:1035B000104670470000E0FF4FF04070E1EE100A47
:1035C0007047000000FF0000FF0000000000000046
:1035D00000000000000000000000000000001818BB
:1035E00018181818080008180000000000003424FB
:1035F000242400000000000000000000000000166D
:10360000247F2424247E2424000000000000083E9F
:103610006848681C1612127C10100000000061D26D
:1036200096740810162949C6000000000000003CEE
:10363000646438724ACE467F00000000000018180B
:10364000181800000000000000000000000004083E
:103650001810303030301010180C0400000020100A
:1036600008080C0404040C08181020000000080AC4
:10367000341C6A0800000000000000000000000088
:10368000001818187F18181800000000000000002B
:1036900000000000000018180830000000000000C2
:1036A000000000003C0000000000000000000000DE
:1036B00000000000000018180000000000000206D2
:1036C000040C080810102020400000000000003CFE
:1036D0006642475B7342663C000000000000001831
:1036E000784808080808087E000000000000003C38
:1036F000460606040810207E000000000000007C42
:103700000606043C0202067C000000000000000CDB
:103710001C14246444FF0404000000000000007E28
:103720006060607E0202067C000000000000001E57
:10373000306048764242623C000000000000007E9B
:103740000206040C08181030000000000000003CC5
:103750006242361C6642423C000000000000003C11
:10376000664242661A020478000000000000000071
:1037700000181800000018180000000000000000E9
:1037800000181800000018180830000000000000A1
:103790000004183060100C0600000000000000005B
:1037A0000000007E007E000000000000000000001D
:1037B00000301804060C1020000000000000301C2F
:1037C00006060618100010100000000000001C2261
:1037D0004141DDB5A5A5AF94C0403C0000000018F4
:1037E0001C342426627E43C1000000000000007CDF
:1037F0004642467C4242427C000000000000001E1F
:10380000204040404040603E000000000000007C3E
:103810004642434343424678000000000000007ED9
:103820006060607E6060607E000000000000007EDE
:103830006060607E60606060000000000000001E4C
:10384000604040CE4242623E000000000000004264
:103850004242427E42424242000000000000007E9E
:10386000181818181818187E000000000000007CB6
:103870000404040404044478000000000000004232
:1038800044485070584C44420000000000000020A2
:10389000202020202020203E0000000000000062A8
:1038A00066675F5B5BC1C1C1000000000000006291
:1038B0006272525A4A4E4646000000000000003C28
:1038C0006243C3C3C343623C000000000000007CAD
:1038D0004642424678404040000000000000003C64
:1038E0006243C3C3C343623C180F00000000007C66
:1038F0006662667C6C646662000000000000003E48
:103900006040601C0602027C000000000000007F96
:1039100018181818181818180000000000000042A5
:10392000424242424242623C00000000000000C1AC
:103930004342622624341C1800000000000000C12D
:10394000C141495B5B7666660000000000000043F1
:10395000663418181C2466C300000000000000C173
:103960004266341C18181818000000000000007E81
:1039700002040C181020607E0000000000001C10E3
:10398000101010101010101010101C00000040201B
:1039900020101008080C04060200000000003C0C77
:1039A0000C0C0C0C0C0C0C0C0C0C3C00000000184B
:1039B0001C24620000000000000000000000000065
:1039C00000000000000000000000FF0000002010C8
:1039D00000000000000000000000000000000000E7
:1039E000003C06023E42467A0000000000004040D3
:1039F000405C62424242427C000000000000000045
:103A0000001E20604060203E000000000000020216
:103A1000023E62424242663A00000000000000009E
:103A2000003C62427E40603E0000000000000F1833
:103A300010107E1010101010000000000000000098
:103A4000003F66426658403E43423C000000404012
:103A5000405C6242424242420000000000001818EE
:103A6000007808080808087E000000000000040C28
:103A7000007C040404040404040C7800000060606A
:103A800060626C7870686462000000000000780872
:103A9000080808080808087E000000000000000070
:103AA00000764B4B4B4B4B4B0000000000000000DE
:103AB000005C6242424242420000000000000000FE
:103AC000003C62424342623C0000000000000000F3
:103AD000005C62424242427C4040400000000000E4
:103AE000003E62424242663A0202020000000000CA
:103AF000006E726360606060000000000000000003
:103B0000003E20203C06027C000000000000001067
:103B100010FE10101010101E000000000000000029
:103B2000004242424242663A0000000000000000AB
:103B30000043426624341818000000000000000012
:103B400000C1C15B5A5E6666000000000000000014
:103B50000062261C181C2662000000000000000005
:103B60000043426624341C181830E00000000000B6
:103B7000007E060C1810207E0000000000000E18C9
:103B8000101010307010101010180E0000080808E7
:103B90000808080808080808080808000000301885
:103BA0000808080C0E08080808183000000000007B
:103BB000000000714B060000000000000000000043
:103BC00000000000000000000000000000000000F5
:103BD00000000000000000000000000000000000E5
:103BE00000000000000000000000000000000000D5
:103BF000000000000003800180018001800180013D
:103C00008001800180018001800000000003C0036A
:103C1000C0000000000000000000000000000000E4
:103C200000000000000E700E700E700C30000000DE
:103C30000000000000000000000000000000000084
:103C40000000000000000000000000000000000074
:103C5000000000000000000618063806307FFE0C49
:103C6000300C300C300C307FFE0C601C601860187B
:103C700060000000000000000000000000000000E4
:103C800000000000C000C00FF83CC831C031803DCA
:103C9000801F8003F001F8031C030C031C3FF83F56
:103CA000E007000600000000000000000000000027
:103CB0000000001C007E0E630C631863307E600001
:103CC000C001800300077C0EE61CC618C630C66023
:103CD0007C00000000000000000000000000000068
:103CE00000000000000FE01CF0387038701C601FEE
:103CF000C00F003F8C71CC60EC607C70383CFC1FC6
:103D0000CE000000000000000000000000000000E5
:103D1000000000000003C00180018001800000005D
:103D20000000000000000000000000000000000093
:103D30000000000000000000000000000000000083
:103D4000000000003000E001C00180030007000611
:103D50000006000E000E000E000E00060007000315
:103D600000038001C000E0003000000000000000FF
:103D70000000000C0006000380018001C000E0008C
:103D80006000600070007000700060006000E00083
:103D9000C00180038006000C00000000000000004D
:103DA0000000000000018011881DB803C007E03D3D
:103DB000BC0188018000000000000000000000003D
:103DC00000000000000000000000000000000000F3
:103DD00000000000000000000000000180018001E0
:103DE00080018001807FFE018001800180018000D0
:103DF00000000000000000000000000000000000C3
:103E000000000000000000000000000000000000B2
:103E1000000000000000000000000003C003C0011B
:103E2000C001C003801F000000000000000000006F
:103E30000000000000000000000000000000000082
:103E400000000000000FF000000000000000000073
:103E50000000000000000000000000000000000062
:103E60000000000000000000000000000000000052
:103E7000000000000000000000000003C003C003B9
:103E8000C000000000000000000000000000000072
:103E90000000000000001800380030006000E00062
:103EA000C001C001800300030006000E000C001CCE
:103EB00000180030000000000000000000000000BA
:103EC000000000000001800FF01C38381C301C700E
:103ED0007E70EE738E7E0E7C0C300C381C1E780FBC
:103EE000E0000000000000000000000000000000F2
:103EF0000000000000000007C01FC039C001C00161
:103F0000C001C001C001C001C001C001C03FFC3FF1
:103F1000FC000000000000000000000000000000A5
:103F2000000000000003801FF0183800380018005F
:103F3000380038007001E0038007001C003FFC3FA0
:103F4000FC00000000000000000000000000000075
:103F5000000000000007801FF00038003800380023
:103F60003007E007F00038001C001C001820F83F64
:103F7000E000000000000000000000000000000061
:103F80000000000000000000F001B0033007300E18
:103F9000301C30383070307FFE7FFE003000300043
:103FA00030000000000000000000000000000000E1
:103FB000000000000000001FF8180018001800188A
:103FC000001FE000F8001C001C001C003800F01F5F
:103FD000C000000000000000000000000000000021
:103FE0000000000000000003F80F001C0018003063
:103FF0000037F83C3C300C300C380C381C1E380FA5
:10400000F0000000000000000000000000000000C0
:10401000000000000000003FFC001C0018003800F9
:1040200070006000E001C001800380070006000E00
:104030000000000000000000000000000000000080
:10404000000000000003C01FF8381C381C381C1C7E
:10405000380FF007F01C78381C300C381C3C380F37
:10406000F000000000000000000000000000000060
:10407000000000000003801FF03838301C701C70F6
:104080000C380C1FFC0FCC001C001800701FE01F28
:1040900080000000000000000000000000000000A0
:1040A0000000000000000000000000000003C0034A
:1040B000C00180000000000000000003C003C00336
:1040C000C000000000000000000000000000000030
:1040D0000000000000000000000000000003C0031A
:1040E000C00180000000000000000003C003C00108
:1040F000C001C003800F00000000000000000000AD
:104100000000000000000000000000003800F00186
:10411000C007001E0038000E00078001C0007000BC
:10412000300000000000000000000000000000005F
:10413000000000000000000000000000000000007F
:10414000003FFC000000003FFC3FFC0000000000BE
:10415000000000000000000000000000000000005F
:1041600000000000000000000000001C000F000321
:104170008001E00078001C007001E003800E000C5C
:10418000000000000000000000000000000000002F
:1041900000000000000FC000F000380038003800B8
:1041A0003803F003800300030000000000078007CD
:1041B000800000000000000000000000000000007F
:1041C00000000000E007F80C0C18063006700363CE
:1041D000F36633C673CC63CC62CC66CCE6C7FCE036
:1041E000006000700038101FF000000000000000A8
:1041F0000000000000000003C007E006E00E700EA3
:10420000700C301C3818183FFC3FFC700E600EE03C
:104210000700000000000000000000000000000097
:10422000000000000000003FF03838381C381C380F
:10423000383FF03FF8381C380C380C381C3FF83F3A
:10424000E00000000000000000000000000000008E
:10425000000000000000E007FC1E043800380030B9
:1042600000700070007000300038003C001F9C0798
:10427000FC00000000000000000000000000000042
:10428000000000000000003FF03078301C300C309F
:104290000E300E300E300E300E301C30383FF03FF6
:1042A000C00000000000000000000000000000004E
:1042B000000000000000001FF81800180018001887
:1042C000001FF81FF818001800180018001FF81F2A
:1042D000F8000000000000000000000000000000E6
:1042E000000000000000001FF81800180018001857
:1042F000001FF81FF8180018001800180018001800
:1043000000000000000000000000000000000000AD
:10431000000000000000F007FC1E043800300070B0
:1043200000700070FC700C700C300C380C1F1C07F7
:10433000FC00000000000000000000000000000081
:1043400000000000000000300C300C300C300C304D
:104350000C3FFC3FFC300C300C300C300C300C307F
:104360000C00000000000000000000000000000041
:10437000000000000000003FFC018001800180017E
:10438000800180018001800180018001803FFC3F2D
:10439000FC00000000000000000000000000000021
:1043A000000000000000001FF0003000300030006E
:1043B000300030003000300030003000701DE01F51
:1043C000C00000000000000000000000000000002D
:1043D00000000000000000381C387038E039C03B95
:1043E000803F003F003B8039C038E03870383838B3
:1043F0001C000000000000000000000000000000A1
:10440000000000000000001C001C001C001C001C20
:10441000001C001C001C001C001C001C001FFC1FBA
:10442000FC00000000000000000000000000000090
:1044300000000000000000381C7C3C6C3E6E6E6684
:104440006E66CE63C663866186600660066006603F
:104450000600000000000000000000000000000056
:10446000000000000000003C0C3C0C3E0C360C33FD
:104470000C338C318C31CC30EC306C307C303C30B7
:104480001C00000000000000000000000000000010
:10449000000000000001C00FF81C3C381C700E70BA
:1044A0000E60066006700E700E700C381C1E780FC1
:1044B000E00000000000000000000000000000001C
:1044C000000000000000003FF0383C381C380C3879
:1044D0000C381C38783FE038003800380038003895
:1044E00000000000000000000000000000000000CC
:1044F000000000000001C00FF81C3C381C700E705A
:104500000E60066006700E700E700C381C1E780F60
:10451000E0018001C000FF003C000000000000003E
:10452000000000000000003FF03838381838183814
:104530003838F03FC038E0387038383838381C38F0
:104540000E0000000000000000000000000000005D
:10455000000000000001E00FF83800380038003C8F
:10456000001F8003F00078001C001C001C38783FFE
:10457000E00000000000000000000000000000005B
:10458000000000000000007FFE018001800180012A
:104590008001800180018001800180018001800113
:1045A000800000000000000000000000000000008B
:1045B00000000000000000300C300C300C300C30DB
:1045C0000C300C300C300C300C300C381C1C380FFC
:1045D000F0000000000000000000000000000000EB
:1045E00000000000000000E006700E700E381C385D
:1045F0001C1C181C380C300E70066007E003C0034A
:10460000C0000000000000000000000000000000EA
:1046100000000000000000600660066006600661A1
:1046200086638673C673CE766C366C3C3C3C3C38F5
:104630001C0000000000000000000000000000005E
:1046400000000000000000301C38181C380E7007F5
:10465000E003C003C007E00E701C381838381C7027
:104660000E0000000000000000000000000000003C
:1046700000000000000000700E700C381C1C380E8A
:1046800070066007E003C0018001800180018001A5
:10469000800000000000000000000000000000009A
:1046A000000000000000003FFC001C00380070000B
:1046B000E001C0038007000E000C0018003FFC3F23
:1046C000FC000000000000000000000000000000EE
:1046D00000000007F007F0060006000600060006CE
:1046E000000600060006000600060006000600069A
:1046F0000006000600060007F000000000000000B1
:10470000000000000018001C000C00060007000359
:10471000000380018001C000C00060007000300014
:10472000380018000C00000000000000000000002D
:104730000000000FE00FE00060006000600060001B
:104740006000600060006000600060006000600069
:10475000600060006000600FE000000000000000EA
:104760000000000000000003C006C006600C301806
:1047700018301C00000000000000000000000000D5
:104780000000000000000000000000000000000029
:104790000000000000000000000000000000000019
:1047A0000000000000000000000000000000000009
:1047B00000000000000000FFFF00000000000000FB
:1047C00000000000001E0003800000000000000048
:1047D00000000000000000000000000000000000D9
:1047E00000000000000000000000000000000000C9
:1047F000000000000000000000000000001FF0109A
:1048000038001C001C0FFC1C1C381C381C3CFC1FF6
:10481000DC000000000000000000000000000000BC
:10482000000000000038003800380038003BF83E37
:104830001C3C1C380C380C380C380C381C3C781FCD
:10484000E000000000000000000000000000000088
:104850000000000000000000000000000007F80E4B
:10486000001C0038003800380038001C000F180702
:10487000F800000000000000000000000000000040
:104880000000000000001C001C001C001C0FFC1C91
:104890001C381C301C301C301C301C383C1CFC0FDD
:1048A0009C0000000000000000000000000000006C
:1048B000000000000000000000000000000FF01CDD
:1048C00038381C300C3FFC3000300038001E0C071C
:1048D000FC000000000000000000000000000000DC
:1048E000000000003C01FE03800300030003007F82
:1048F000FC7FFC030003000300030003000300032C
:1049000000000000000000000000000000000000A7
:10491000000000000000000000000000000FFE1C6E
:10492000383818381818381FF03B8030003FF01F17
:10493000FC300E700E381C1FF80000000000000054
:10494000000000000038003800380038003BF83E16
:10495000383C1C381C381C381C381C381C381C3897
:104960001C0000000000000000000000000000002B
:10497000000000018003C003C0000000001FC00150
:10498000C001C001C001C001C001C001C001C03FE1
:10499000FC0000000000000000000000000000001B
:1049A000000000002000700070000000003FF000D8
:1049B0007000700070007000700070007000700077
:1049C000700070007020E03FC00000000000000098
:1049D00000000000001800180018001800183C180B
:1049E0007018E01B801F001B8019E0187018381821
:1049F0001C0000000000000000000000000000009B
:104A000000000000001FC001C001C001C001C001C2
:104A1000C001C001C001C001C001C001C001C03F50
:104A2000FC0000000000000000000000000000008A
:104A3000000000000000000000000000006F3C7952
:104A4000EE71CE718E718E718E718E718E718E71CE
:104A50008E000000000000000000000000000000C8
:104A6000000000000000000000000000003BF83ED5
:104A7000383C1C381C381C381C381C381C381C3876
:104A80001C0000000000000000000000000000000A
:104A9000000000000000000000000000000FF01CFB
:104AA0003C381C700E700E700E700C381C1E780F87
:104AB000E000000000000000000000000000000016
:104AC000000000000000000000000000003BF83E75
:104AD0001C3C1C380C380C380C380C381C3C783F0B
:104AE000E038003800380038000000000000000006
:104AF000000000000000000000000000000FFC1C8F
:104B00001C381C301C301C301C301C383C1CFC0F6A
:104B10009C001C001C001C001C0000000000000089
:104B20000000000000000000000000000019F81F55
:104B30001C1C0C180E18001800180018001800187B
:104B40000000000000000000000000000000000065
:104B5000000000000000000000000000000FF81C32
:104B60000018001E000FC001F80018001818381FA8
:104B7000F000000000000000000000000000000045
:104B8000000000000000000600060006007FFC0692
:104B90000006000600060006000600070007840164
:104BA000FC00000000000000000000000000000009
:104BB00000000000000000000000000000381C3869
:104BC0001C381C381C381C381C381C383C1CFC0F8A
:104BD000DC000000000000000000000000000000F9
:104BE00000000000000000000000000000700C3811
:104BF0001C38181C380C300E70066007E003C00328
:104C0000C0000000000000000000000000000000E4
:104C100000000000000000000000000000600660CE
:104C2000066186738E73CC33CC366C366C3C3C3C60
:104C3000380000000000000000000000000000003C
:104C400000000000000000000000000000381C1CF4
:104C5000380E7007E003C003C007E00E701C383840
:104C60001E00000000000000000000000000000026
:104C700000000000000000000000000000700C3880
:104C80001C38181C380C300E70066007E003C00397
:104C9000C0038007000E007C000000000000000040
:104CA000000000000000000000000000001FF800ED
:104CB00038007000E001C0038007000C001FFC3FBB
:104CC000FC000000000000000000000000000000E8
:104CD000000000007801F803800380038003800354
:104CE0008003003F003E0003000380038003800335
:104CF000800380038001C000F80000000000000174
:104D0000800180018001800180018001800180019B
:104D1000800180018001800180018001800180018B
:104D200080018001800180018000000000000000FF
:104D30000000001E001F80018001C001C001C001F1
:104D4000C000C000FC007C00C001C001C001C00167
:104D5000C001C001C003801F00000000000000006F
:104D60000000000000000000000000000000000043
:104D7000001C003F0671CE60FC0000000000000037
:104D80000000000000000000000000000000000023
:104D90000000000000000000000000000000000013
:104DA0000000000000000000000000000000000003
:104DB00000000000000000000000000000000000F3
:104DC00000000000000000000000000000000000E3
:104DD00000000000000000000000000000000000D3
:104DE00000000000000000000000000000000000C3
:104DF00000000000000000000000000000003C0077
:104E0000003C00003C00003C00003C00003C000076
:104E10003C00003C00003C00003C00003C00003C2A
:104E200000003C00003C00000000000000003C00CE
:104E3000007E00003C0000000000000000000000B8
:104E40000000000000000000000000000000000062
:104E50000000000000000000000000000003C3E0AC
:104E600003C3E003C3C003C3C003C3C003C3C00381
:104E7000C1C00000000000000000000000000000B1
:104E80000000000000000000000000000000000022
:104E90000000000000000000000000000000000012
:104EA0000000000000000000000000000000000002
:104EB00000000000000000000000000000000000F2
:104EC00000000001E0E001C0E001C0E001C0E03FFF
:104ED000FFFE3FFFFE03C1C00381C00381C0038109
:104EE000C07FFFFC7FFFFC078380070380070380F0
:104EF000070380070780000000000000000000009A
:104F000000000000000000000000000000000000A1
:104F100000000000000000000000000700000F007B
:104F2000000E0001FFF007FFF01F0E001E1E001E06
:104F30001C001E1C000FDC0007FC0000FF80003F6F
:104F4000F00038F800387800783C0070783071F85C
:104F50003FFFE01FFF0000E00000E00000E0000075
:104F60000000000000000000000000000000000041
:104F7000000000000000000000000000000F800F93
:104F80003FE01E78703C7070707070E07071C03FD0
:104F9000E3801FC700000E00001C0000780000F036
:104FA000F001E7FC03CF0E078E0E0F0E0E1E0E0E45
:104FB0003C07BC7003F80000000000000000000087
:104FC00000000000000000000000000000000000E1
:104FD00000000000000000000000000000000000D1
:104FE00001FF0007FF800F03C00F03C00F03C00FB6
:104FF0000780079F0003FE0003F0000FF83C3E7C93
:105000003C3C1F3C780FF87807F87C01F03E03F831
:105010001FFFFC07FE1F0000000000000000000052
:105020000000000000000000000000000000000080
:1050300000000000000000000000000000003E0032
:10504000003C00003C00003C00003C00003C000034
:105050003C00000000000000000000000000000014
:105060000000000000000000000000000000000040
:105070000000000000000000000000000000000030
:105080000000000000000000000000000000000020
:10509000000000000000000000000000800001C0CF
:1050A000000780000F00001E00003C000078000098
:1050B000F00000E00001E00001E00001C00003C0DA
:1050C0000003C00001C00001E00001E00000F000AA
:1050D00000F000007800003C00001E00000F0000FF
:1050E00007C00001C0000000000000000000000038
:1050F0000000000000000000000000000003C000ED
:1051000001E00000F000007C00003E00001E0000F6
:105110000F000007800007800003800003C0000329
:10512000C00003C00003C0000380000780000780A8
:10513000000F00001E00003C0000780000F000019D
:10514000E0000380000000000000000000000000FC
:1051500000000000000000000000000000001C0033
:10516000001C000018000F18F007DBE0007F0000B3
:10517000FF0007DBE00E1870001800001C00001C88
:10518000000000000000000000000000000000001F
:10519000000000000000000000000000000000000F
:1051A00000000000000000000000000000000000FF
:1051B00000000000000000000000000000000000EF
:1051C000000000000000000000000000003C0000A3
:1051D0003C00003C00003C00003C00003C003FFF65
:1051E000FC3FFFFC003C00003C00003C00003C0099
:1051F000003C000000000000000000000000000073
:10520000000000000000000000000000000000009E
:10521000000000000000000000000000000000008E
:10522000000000000000000000000000000000007E
:10523000000000000000000000000000000000006E
:1052400000000000000000000000007C00007E0064
:10525000007E00003E00001E00003C0000F8000739
:10526000E00004000000000000000000000000005A
:10527000000000000000000000000000000000002E
:10528000000000000000000000000000000000001E
:10529000000000000000000000000000000003FF0C
:1052A000E003FFE00000000000000000000000003C
:1052B00000000000000000000000000000000000EE
:1052C00000000000000000000000000000000000DE
:1052D00000000000000000000000000000000000CE
:1052E00000000000000000000000000000000000BE
:1052F00000000000000000000000000000000000AE
:1053000000000000000000000000007C0000FE0023
:1053100000FE00007E000000000000000000000011
:10532000000000000000000000000000000000007D
:1053300000000000000000000000000000000078F5
:105340000000F00000E00001E00003C00003800066
:105350000780000F00000E00001E00003C00003817
:105360000000700000F00000E00001C00003C00079
:105370000780000700000F00001E00001C00000056
:10538000000000000000000000000000000000001D
:10539000000000000000000000000000000000000D
:1053A00000000001FFC007FFE00F00F01E00781EA4
:1053B000003C3C00FC3C07FC3C1FBC3C7C1C3DF022
:1053C0003C3FC03C3F003C1E00381E00780F80F080
:1053D00007FFE001FF800000000000000000000067
:1053E00000000000000000000000000000000000BD
:1053F00000000000000000000000000000000000AD
:10540000000000007E0003FE001FDE000E1E0000F4
:105410001E00001E00001E00001E00001E00001ED8
:1054200000001E00001E00001E00001E00001E00E6
:105430000FFFF80FFFF80000000000000000000060
:10544000000000000000000000000000000000005C
:10545000000000000000000000000000000000004C
:1054600000000003FF800FFFE00E01F00000F000DD
:1054700000F00000F00000F00001E00003C0000FA9
:1054800080003E00007C0001F00003C0000F80009F
:105490001FFFFC1FFFFC00000000000000000000D8
:1054A00000000000000000000000000000000000FC
:1054B00000000000000000000000000000000000EC
:1054C0000000000FFF800FFFE00001E00000F0008F
:1054D00000F00001E00003C001FF0001FFC0000375
:1054E000F00000780000780000780000780001F0FB
:1054F0000FFFC00FFF0000000000000000000000D0
:10550000000000000000000000000000000000009B
:10551000000000000000000000000000000000008B
:10552000000000000FC0001FC0003FC0007BC00093
:10553000F3C001E3C003C3C00783C00F03C01C0353
:10554000C03803C07FFFFE7FFFFE0003C00003C022
:105550000003C00003C000000000000000000000C5
:10556000000000000000000000000000000000003B
:10557000000000000000000000000000000000002B
:105580000000000FFFE00FFFE00F00000F00000F12
:1055900000000F00000F00000FFF800FFFE0000071
:1055A000F00000780000780000780000F00003E0D0
:1055B0000FFFC00FFE000000000000000000000010
:1055C00000000000000000000000000000000000DB
:1055D00000000000000000000000000000000000CB
:1055E000000000003FF001FFF003E0000780000F23
:1055F00000001E00001E1F001FFFE01FC1F81E005C
:10560000781E003C1E003C1E003C0F00780F80F806
:1056100007FFE001FF800000000000000000000024
:10562000000000000000000000000000000000007A
:10563000000000000000000000000000000000006A
:105640000000001FFFFC1FFFFC0000780000F000BE
:1056500000E00001E00003C0000780000F00000F21
:1056600000001E00003C0000780000F00001F00087
:1056700001E00003C0000000000000000000000086
:10568000000000000000000000000000000000001A
:10569000000000000000000000000000000000000A
:1056A00000000003FFE00FE3F00F00781E00781EFB
:1056B00000780F00F007E3E001FF8001FF8007E7BB
:1056C000E00F00F81E00781E003C1E007C1F00F852
:1056D0000FFFF003FFC0000000000000000000000A
:1056E00000000000000000000000000000000000BA
:1056F00000000000000000000000000000000000AA
:1057000000000003FF800FC7E01E00F01E00783C81
:1057100000783C00783C00381E00780FEFF807FF57
:10572000B80000780000780000F00001E0000FC031
:105730000FFF000FF000000000000000000000005C
:105740000000000000000000000000000000000059
:105750000000000000000000000000000000000049
:105760000000000000000000000000000000000039
:105770007E00007E00007E00001800000000000097
:1057800000000000000000000000003C00007E005F
:10579000007E00003E00000000000000000000004D
:1057A00000000000000000000000000000000000F9
:1057B00000000000000000000000000000000000E9
:1057C00000000000000000000000000000000000D9
:1057D0007E00007E00007E00001800000000000037
:1057E00000000000000000000000003E00007E00FD
:1057F000007F00001F00001E00001E0000FC0007CC
:10580000F0000400000000000000000000000000A4
:105810000000000000000000000000000000000088
:105820000000000000000000000000400001E00057
:1058300007C0001F00007E0001F80003E0000F8099
:10584000000F800003E00000F800003E00000F8021
:105850000003E00000E00000000000000000000085
:105860000000000000000000000000000000000038
:105870000000000000000000000000000000000028
:105880000000000000000000000000000000000018
:1058900000000000000000001FFFF80000000000F2
:1058A000000000001FFFF81FFFF8000000000000CC
:1058B00000000000000000000000000000000000E8
:1058C00000000000000000000000000000000000D8
:1058D00000000000000000000000000000000000C8
:1058E000000000000000000000000000078000032E
:1058F000E00000F800003E00000F800003E0000020
:10590000F80001F00007C0001F00007C0001F0005B
:1059100007C00003000000000000000000000000BD
:105920000000000000000000000000000000000077
:105930000000000000000000000000000001C000A6
:1059400001FE00007F800007C00001E00000F000C1
:1059500000F00001F00003E0007FC0007E00007056
:105960000000700000700000000000000000F8005F
:1059700000F80000F8000000000000000000000037
:105980000000000000000000000000000000000017
:1059900000000000000000000000000000001F8068
:1059A00000FFF003C07807801C0E000E1C000E3CA8
:1059B000000F383FC778FFC770E3C771C3C7F3C391
:1059C00087E3C387E3878EE3878EE3CF8EE3FFFC15
:1059D00071F9F07000007000003800003C00000F0A
:1059E00001C007FFC0000000000000000000000030
:1059F00000000000000000000000000000000000A7
:105A0000000000007E00007F0000FF0000E7800132
:105A1000E78003C3C003C3C00781E00781E00F0034
:105A2000F00F00F81FFFF81FFFFC3C003C3C001E7D
:105A300078001EF0000F00000000000000000000D1
:105A40000000000000000000000000000000000056
:105A50000000000000000000000000000000000046
:105A60000000001FFFC01FFFF01E00F01E00781E88
:105A700000781E00F01E01F01FFFC01FFFE01E0196
:105A8000F81E00781E003C1E003C1E00781E00F828
:105A90001FFFE01FFF0000000000000000000000EA
:105AA00000000000000000000000000000000000F6
:105AB00000000000000000000000000000000000E6
:105AC00000000000FFF803FFF807C0000F00001EF1
:105AD00000001E00003C00003C00003C00003C00B8
